:020000040800F2
:10000000D00E00209D010008151400083D130008C3
:1000100011140008B5020008351F00080000000098
:10002000000000000000000000000000ED140008C7
:10003000B90200080000000019140008F1140008BB
:10004000B7010008B7010008B7010008B7010008B0
:10005000B7010008B7010008B7010008B7010008A0
:10006000B7010008B7010008B7010008B701000890
:10007000B7010008B7010008B7010008B701000880
:10008000B7010008B7010008B7010008B701000870
:10009000B7010008B7010008B7010008B701000860
:1000A000B7010008B7010008B7010008B701000850
:1000B000B7010008B7010008B7010008B701000840
:1000C000B7010008B7010008B7010008B701000830
:1000D000B7010008B7010008B7010008B701000820
:1000E000B7010008B7010008B7010008B701000810
:1000F000B7010008B7010008B7010008B701000800
:10010000B7010008B7010008B7010008B7010008EF
:10011000B7010008B7010008B7010008B7010008DF
:10012000B7010008B7010008B7010008B7010008CF
:10013000B7010008B7010008B7010008B7010008BF
:10014000B7010008B7010008B7010008B7010008AF
:10015000B7010008B7010008B7010008B70100089F
:10016000B7010008B7010008B7010008B70100088F
:10017000B7010008B7010008B7010008000000003F
:10018000B7010008B7010008DFF80CD000F07AF8DA
:1001900000480047D5390008D00E002006488047A7
:1001A00006480047FEE7FEE7FEE7FEE7FEE7FEE75C
:1001B000FEE7FEE7FEE7FEE79D150008890100085F
:1001C0002DE9F05F0546002092469B46884606468C
:1001D000814640241BE0284641464746224600F01F
:1001E00041F853465A46C01A914110D31146184659
:1001F000224600F028F82D1A67EB01084F462246E8
:100200000120002100F01FF817EB00094E41201ECD
:10021000A4F10104DFDC484631462A464346BDE8E6
:10022000F09FD2B201E000F8012B491EFBD27047CB
:100230000022F6E710B513460A4604461946FFF7B2
:10024000F0FF204610BD202A04DB203A00FA02F11C
:10025000002070479140C2F1200320FA03F31943B4
:1002600090407047202A04DB203A21FA02F0002156
:10027000704721FA02F3D040C2F1200291400843B6
:10028000194670471CB50948009009480190054679
:10029000009C06E0E06840F0010394E807009847FE
:1002A0001034AC42F6D3FFF773FF0000C4490008D6
:1002B000E4490008FEE700007047000040F2B85330
:1002C000C2F200035A7A002A1CBF0120704780B591
:1002D00093F809C08646002003F80C005A7A03EB15
:1002E0008202C2F804E05A7A1A44107293F809C0E4
:1002F0000CF101025A720CF130020A7042F63A72A5
:10030000A1F80120C87080BDB0B5044600F0E8F83F
:10031000054640F22000C2F200000078611C18BFC0
:10032000044400BF00F0DCF8401BA042FAD3B0BD8B
:100330002DE9F04F82B000F13E4707F1FF778605C7
:1003400046EA972741F60046C4F202060822B04268
:1003500008BF0722072F38BF3A46002400274FF076
:100360000009009209E000BF09F101090237B9F163
:10037000100F04F1040400F0A4800D68012202FAB9
:1003800009FC15EA0C08EFD0D1F804B00BF0030A11
:10039000AAF10105012D12D80322856802FA07FE91
:1003A000CA6825EA0E05BA402A4382604268CBF348
:1003B000001522EA0C0205FA09F52A434260BAF157
:1003C000030F1CD0C26803238E6803FA07F5AA4303
:1003D000BE403243BAF1020FC26010D16FF0030287
:1003E00002EA59020244D2F820C004F01C050F238F
:1003F0000E69AB402CEA0303AE403343136202683C
:1004000003234E68BB409A4306F00303BB401A43E4
:1004100016F4403F0260A7D0002243F64403019245
:10042000C4F202031A6843F6004E42F480421A6096
:100430001A68C4F2010E02F480420192019A29F076
:1004400003024FF6084C7244CFF6FF7C52F80C3092
:1004500004F00C060F25B540AB43009D05FA06F6E7
:10046000334342F80C30DEF808204B6842EA0806B5
:1004700043F60C4CDD0258BF22EA0806CEF80860AD
:10048000C4F2010CDCF800209D0242EA080658BFC5
:1004900022EA0806CCF80060DEF804209D0342EA58
:1004A000080658BF22EA0806CEF80460DEF80020ED
:1004B000DB0342EA080658BF22EA0806CEF80060CD
:1004C00052E702B0BDE8F08F0069084018BF012074
:1004D00070470000002A08BF0904816170470000CE
:1004E00040F2C860C2F200000068704740F220008D
:1004F00040F2C861C2F20000C2F2000100780A684E
:10050000104408607047000080B543F60040C4F214
:100510000200016841F400710160016841F48061EA
:100520000160016841F480710160032000F078F8F7
:100530000F2000F005F800F02BF8002080BD00002F
:10054000B0B540F22002C2F2000240F20801127877
:10055000C2F200014FF47A730968B3FBF2F2044669
:10056000B1FBF2F1084600F0ADFD0F2C4FF0010594
:100570000CD858B94FF0FF3021460022002500F07A
:1005800023F840F22400C2F2000004602846B0BD07
:1005900082B0002043F640010190C4F202014A6893
:1005A00042F480424A604A6802F480420192019A11
:1005B0000090086840F080500860086800F08050A3
:1005C0000090009802B0704710B54EF60C5CCEF269
:1005D000000CDCF80030C3F3022E8EF00704042C6C
:1005E00028BF0424BEF103034FF0FF3E0EFA04F4CB
:1005F00038BF0023A14399400EFA03F39A431143F5
:1006000000F1604200F00F03090102F56442043B6F
:100610006344002848BF03F10C02117010BD0000B4
:100620004EF60C51CEF200010A684FF6FF031A4055
:1006300060F30A2242F0806040F0FD70086070476D
:10064000002804BF012070472DE9F04143F6080857
:10065000C4F202080446D8F8F8030D4600F007007B
:10066000884207D288F8F853D8F8F80300F007005A
:10067000A84276D12068810717D5410705D5D8F85B
:10068000001041F4E051C8F80010010705D5D8F872
:10069000001041F46041C8F80010D8F80010A268BA
:1006A00021F0F0011143C8F80010C0073FD1D8F87D
:1006B000F80300F00700A84207D988F8F853D8F8E3
:1006C000F80300F00700A8424BD12068410707D586
:1006D000D8F80010E26821F4E0511143C8F8001086
:1006E000000708D5D8F80000216920F4604040EAEE
:1006F000C100C8F8000000F07BF8D8F8001044F200
:100700002C52C1F30311C0F60002515C40F2080202
:1007100020FA01F140F22400C2F200000068C2F2A7
:1007200000021160FFF70CFF0020BDE8F081606857
:10073000811E022907D258F8081C89015CBF0120DC
:10074000BDE8F08110E0012807D158F8081C8903A2
:100750005CBF0120BDE8F08106E058F8081C89075D
:1007600002D40120BDE8F081D8F8001021F0030187
:100770000843C8F80000FFF7B3FE064641F2883789
:10078000D8F80000616800F00C00B0EB810F8ED04B
:10079000FFF7A6FE801BB842F2D90320BDE8F08126
:1007A00040F2080043F60801C2F20000C4F2020160
:1007B0000068096844F23C52C1F38221C0F600028D
:1007C000515CC8407047000040F2080043F6080141
:1007D000C2F20000C4F202010068096844F23C520F
:1007E000C1F34231C0F60002515CC84070470000BE
:1007F00010B543F60404C4F20204606800F00C0172
:1008000042F200400829C0F2F40007D0042918BFC2
:1008100010BD41F20020C0F27A0010BD216801F045
:100820003F02216823684902C3F3881105D4A1FB64
:1008300000010023FFF7C4FC06E041F20020C0F2F3
:100840007A004843B0FBF2F021680222C1F3014173
:1008500002EB4101B0FBF1F010BD0000002804BF25
:10086000012070472DE9F04182B00446007843F63C
:100870000006C007C4F2020647D0B06800F00C00C2
:10088000042808D1306880033FD56068E8BB0120A8
:1008900002B0BDE8F081B06800F00C00082802D179
:1008A00070684002EED46568B5F5A02F0AD0B5F5A2
:1008B000803F0BD0306820F480303060306820F406
:1008C000802006E0306840F480203060306840F4DA
:1008D00080303060FFF704FE002D054612D000BFC7
:1008E0003068800311D4FFF7FBFD401B6428F7D963
:1008F00026E100BFFFF7F4FD401B64284FF0030022
:1009000000F2E28030688003F4D4207880071BD5A1
:10091000B06810F00C0F09D0B06800F00C00082887
:1009200040F087807068400200F183803068800763
:1009300003D5E068012840F09E803068216920F0EE
:10094000F80040EAC10030602078000735D42078F4
:10095000400748D4A56965B3B06800F00C000828CA
:1009600040F09E80012D00F086807068E16900F4FF
:1009700080028A4240F07F80216A00F03F028A4272
:1009800079D147F6C071626A0140B1EB821F72D122
:10099000A16A4FF6FF73C903994300F44032A1F5F1
:1009A00080318A4267D1E16A00F07060B0EB016F7C
:1009B00061D1002002B0BDE8F0816069002840F2FA
:1009C0000000C4F247205AD00121C0F8801EFFF772
:1009D00087FD0546706F8007B9D4FFF781FD401B86
:1009E0000228F7D9ACE0306C5FEAC0080AD40020D6
:1009F0000190306C40F080503064306C00F08050DA
:100A00000190019847F20007C4F200073868C0055A
:100A100024D4386840F480703860FFF761FD0546E3
:100A20003868C0051AD4FFF75BFD401B0228F7D9D0
:100A300086E0E068002857D00020C4F2472001215A
:100A40000160FFF74DFD0546306880073FF575AF43
:100A5000FFF746FD401B0228F6D971E0A568052D79
:100A600056D0012D58D0306F20F001003067306F24
:100A700020F0040053E0012002B0BDE8F081002125
:100A8000C0F8801EFFF72CFD054600BF706F800781
:100A90007FF55DAFFFF724FD401B0228F6D94FE03C
:100AA0000027C4F2472700203866FFF719FD022D02
:100AB00005460DD13068800159D5FFF711FD401B67
:100AC00002284FF00300F5D902B0BDE8F08100BF65
:100AD000306880017FF56DAFFFF702FD401B0228F3
:100AE0004FF00300F4D9EFE70020C4F247200021C3
:100AF0000160FFF7F5FC0546306880077FF524AFFD
:100B0000FFF7EEFC401B02284FF00300F4D9DBE7AF
:100B1000306F40F004003067306F40F00100306704
:100B2000FFF7DEFC002D054641F2883713D000BFE9
:100B3000306F800712D4FFF7D3FC401BB842F7D9BF
:100B4000032002B0BDE8F081FFF7CAFC401BB842A9
:100B50004FF00300B8D8306F8007F5D4B8F1000F1C
:100B60003FF5F8AE306C20F080503064F2E604F1CE
:100B70001C052FCD084340EA8210D9034FF6FF72BF
:100B80009143A1F5803140EA05600843706001207F
:100B90003866FFF7A5FC0446306880013FF509AFD1
:100BA000FFF79EFC001B02284FF00300F4D98BE7EF
:100BB00090F851007047000070B538B10446406AA3
:100BC00030B10020206104F1140007E0012070BD65
:100BD0006068B0F5827F03D004F11C000021016041
:100BE0000026A66294F8510020B9204684F850608F
:100BF00000F03CF8022084F8510094E80F0001F462
:100C00008271056802F4044225F040050560114434
:100C100003F400622369114403F002026369114482
:100C200003F00102A369E569114403F40072114461
:100C300005F03802256A114405F08002A56A1143C7
:100C400005F4005211430160626A042101EA134174
:100C500002F0100211444160C16921F40061C161D8
:100C60000120666584F85100304670BD80B586B0BD
:100C700043F600410068C4F2000100228842059258
:100C8000CDE903220292019201D006B080BD43F665
:100C900030000092C4F20200036943F40043036190
:100CA000036903F400430093009B0092036843F040
:100CB00004030360006800F00400009000984FF403
:100CC000E05001900220CDE90202032004900620AA
:100CD000059001F5E63001A9FFF72AFB06B080BDBB
:100CE0002DE9F04383B0044690F85000012803D169
:100CF000022003B0BDE8F0834FF001091D461646FF
:100D00000F4684F85090FFF7EBFB94F8511001293F
:100D10005BD18046002F4FF0010018BF002E00F07D
:100D2000B680032084F85100002060652763A68602
:100D3000E686A063A087E087A168C4E91000B1F54A
:100D4000004F08D12068016821F04001016001686E
:100D500041F48041016020680168490603D40168BC
:100D600041F0400101606168731EE268B1FA81F1EF
:100D7000B3FA83F349095B09B2F5006F41EA030155
:100D800025D131B137F8021BC1602763E08E0138ED
:100D9000E086E08E002840D06E1C09E0216B31F81F
:100DA000022BC2602163E08E0138E086E08EA0B3A2
:100DB000206881688907F1D4FFF792FB002EF5D0F7
:100DC000A0EB0800A842F1D325E002205FE039B192
:100DD00039780173206B01302063E08E0138E086A2
:100DE000E08ED0B16E1C0AE0216B09780173206B94
:100DF00001302063E08E0138E086E08E68B1206823
:100E000081688907F0D4FFF76BFB002EF5D0A0EBCB
:100E10000800A842F1D3032039E040F20800C2F2F2
:100E20000000006849F68171C1F25E61A0FB01011A
:100E3000480D4FF47A71484302906068B0F5827FA4
:100E40000ED1204680212A46434600F0E7FA80B1C1
:100E5000606D40F0200060652020606509E000BF03
:100E6000029830B10298013802902068806800062C
:100E7000F6D4A06838B9002001902068C1680191BB
:100E8000806801900198606D002818BF0120002142
:100E900084F8519084F8501003B0BDE8F08300004E
:100EA0002DE9F04383B0044690F85000012803D1A7
:100EB000022003B0BDE8F08301201E4615460F4610
:100EC00084F85000FFF70CFB94F85110814601297B
:100ED0006BD1002F4FF0010018BF002D00F0AF8044
:100EE000002E00F0AC8094F85100002104281CBFB3
:100EF000052084F851006165A563E687A68727630E
:100F0000E6862068A686216461640168490603D4E8
:100F1000016841F0400101606168731EE268B1FA46
:100F200081F1B3FA83F3DDF8288049095B09B2F552
:100F3000006F41EA030147D131B137F8021BC160AC
:100F40002763E08E0138E086012608F1010500BF25
:100F5000E08E10B9E08F00287AD020688168890778
:100F60000CD5E18E51B1012E08D1216B002631F84C
:100F7000022BC2602163E18E0139E1868168C907D5
:100F80000AD0E18F41B1C068A16B012621F8020BA4
:100F9000A163E08F0138E087FFF7A2FA002DD7D0D8
:100FA000A0EB09004045D3D348E06068B0F5827FEC
:100FB00008D104294FF0020041D1A16800293FF473
:100FC00088AF3CE002203AE039B139780173206BF8
:100FD00001302063E08E0138E086012608F101052A
:100FE000E08E08B9E08F98B32068816889070DD535
:100FF000E18E59B1012E09D1216B002609780173C8
:10100000206B01302063E08E0138E0862068816823
:10101000C9070BD0E18F49B1C068A16B01260870E8
:10102000A06B0130A063E08F0138E087FFF758FA2A
:10103000002DD5D0A0EB09004045D1D303200121DC
:1010400084F85110002184F8501003B0BDE8F083FB
:1010500040F20800C2F20000006849F68171C1F256
:101060005E61A0FB0101480D4FF47A714843029084
:101070006068B0F5827F0FD12046802142464B4602
:1010800000F0CCF988B1606D40F020006065202050
:1010900060650120D3E700BF029830B102980138A3
:1010A0000290206880680006F6D4A06800284FF0FF
:1010B0000000C4D101902168CA6801928968019139
:1010C0000199BCE7411E0020B0EB116F1CBF01204D
:1010D00070474EF21002CEF2000251604EF62351DC
:1010E000CEF20001F0230B70072190601160704771
:1010F000002804BF0120704710B5044690F83D0059
:1011000028B9002084F83C00204600F021F8242073
:1011100084F83D002068C16821F40051C160204678
:1011200000F042FB2068016921F4904101614169AE
:1011300021F02A014161C16841F40051C1600020E1
:101140002021206484F83D1084F83E1010BD00007A
:1011500080B586B041F200010068C4F201010022AE
:1011600088420592CDE903220292019201D006B095
:1011700080BD43F630000092C4F20200436943F0A0
:1011800010034361436903F010030093009B009236
:10119000036843F001030360006800F00100009061
:1011A00000984FF4C06001900220CDE902020320B4
:1011B00004900720059001F5704001A9FFF7B8F8E9
:1011C00006B080BD2DE9F04381B0044690F83D00A3
:1011D00020280DD10D4600294FF0010000F0AB8012
:1011E0001646002A00F0A78094F83C00012803D19D
:1011F000022001B0BDE8F083012084F83C0000200B
:1012000020642120984684F83D00FFF769F9A68400
:10121000E684A1688146B1F5805F01D1206910B1F3
:101220002F46002500E00027002084F83C00E08CD9
:10123000002842D008F101060AE000BF97B117F874
:10124000010B21684860E08C0138E084E08CA0B399
:10125000206800680006F1D4BEB1B8F1000F0ED1CD
:1012600016E000BF35F8020B21686FF35F2048607D
:101270000027E8E701680906E0D4002EFAD0FFF75E
:101280002FF9A0EB0900404502D82068F2E700BF23
:10129000206850E8030F216820F4D07041E8030271
:1012A000002AF5D1206850E8050F216820F00100E0
:1012B00041E80502002AF5D10AE0206800684006EE
:1012C00035D4B8F1000F1DD018F101050CD012E093
:1012D000202084F83D0084F83E00002084F83C0083
:1012E000032001B0BDE8F083206800BF0168490613
:1012F0001DD4002DFAD0FFF7F3F8A0EB090040450C
:10130000F2D900BF206850E8030F216820F4D070A4
:1013100041E80302002AF5D1206850E8050F216852
:1013200020F0010041E80502002AF5D1D0E7202095
:1013300084F83D00002001B0BDE8F083FEE7000026
:1013400080B540F20C0040F2AC51C2F20000C2F293
:101350000001FEF7B3FF40F26061C2F200010870C5
:1013600080BD000017A003F0B9F80020C4F202000D
:101370004FF48071FFF7A8F8012808D11EA400BF20
:10138000204603F0ABF86420FEF7BEFFF8E740F21A
:10139000481040F2AC51C2F20000C2F2000100223B
:1013A00001F004FA38B10CA4204603F097F8642049
:1013B000FEF7AAFFF8E700F081F900F0F9F800BFA6
:1013C000FEE700BF546573745F46617446535F5314
:1013D000504920210A0D0000466174467320496E71
:1013E000697469616C697A6174696F6E20457272A3
:1013F0006F72210A0D00000045727220755344205F
:101400004E6F7420466F756E6420210A0D00000037
:10141000FEE70000FEE70000704700002DE9F04302
:1014200081B01E4690460D468146FFF759F8301AA6
:1014300000EB0807FFF754F840F20801C2F2000180
:101440000968C1F3CB3179430091D9F8001089685C
:101450002940A94219D1064608F1010406E000BF5F
:10146000D9F8000080682840A8420ED1002CF7D09F
:10147000FFF736F8801BB8420BD20098009900287D
:1014800008BF0746481E0090EAE7002001B0BDE80B
:10149000F083D9E900014268B1F5827F22F0E002D1
:1014A00042600BD1D9F80810B1F5004F02D0B1F568
:1014B000806F03D1016821F040010160D9F8281044
:1014C000B1F5005F07D1016821F4005101600168A6
:1014D00041F400510160012089F85100002089F891
:1014E0005000032001B0BDE8F08300007047000009
:1014F000FEF7FCBF70B592B006AC20463021FEF777
:1015000097FE002543F640000595CDE90355CDE94A
:1015100001550095C4F202000168022641F0805195
:101520000160006800F080500090009847F20000D1
:101530000095C4F20000016841F480410160006838
:10154000A82100F4804000900098012006904FF4FC
:10155000803007904FF480000D9004200E90119081
:1015600020460C96CDE90F16FFF778F908B172B650
:10157000FEE70F20CDE901064FF4A05004904FF490
:101580008050059001A805210395FFF759F810B187
:1015900072B600BFFEE712B070BD00004EF6885074
:1015A000CEF20000016841F4700101607047000054
:1015B00010B540F27C3044F2D261C2F20000C0F6B5
:1015C0000001012201F046F920B11AA0BDE8104047
:1015D00002F084BF40F2B05440F27C3040F26161CE
:1015E000C2F20004C2F20000C2F2000164222346EB
:1015F00001F016FB014640F260602268C2F2000072
:10160000017014A08AB181B940F27C30C2F20000AE
:1016100001F08CF840F2B450C2F200002168026878
:1016200019A013A3914208BF1846BDE8104002F06C
:1016300055BF00BF2066696C65204F70656E2066DF
:101640006F722072656164204572726F72200A0D9C
:10165000000000002066696C652052656164206F9F
:101660007220454F46204572726F720A0D000000CD
:10167000546573745F46617446735F52656164209C
:101680004F4B210A0D0000005265616420646174B3
:101690006120697320646966666572656E74206690
:1016A000726F6D2074686520657870656374656419
:1016B0002064617461200A0D0000000010B540F242
:1016C0007C3044F2D261C2F20000C0F600010A226E
:1016D00001F0C0F838B11AA4204602F0FFFE6420E1
:1016E000FEF712FEF8E740F2B45440F27C3040F2CC
:1016F0002801C2F20004C2F20000C2F2000121225D
:10170000234601F0F3FB216840F26062C2F200025E
:10171000107059B150B940F27C30C2F2000001F0B3
:1017200005F811A0BDE8104002F0D8BE14A400BF17
:10173000204602F0D3FE6420FEF7E6FDF8E700BF86
:1017400053544D33322E5458542066696C65204FE3
:1017500070656E20666F72207772697465204572BD
:10176000726F7220210A0D00546573745F466174B4
:1017700046735F5772697465204F4B210A0D000054
:1017800053544D33322E5458542066696C6520579B
:1017900072697465206F7220454F46204572726FE2
:1017A00072210A0D0000000010B504460068D4E95B
:1017B00002C22369016921F4405111430161626948
:1017C00043EA0C01E3691143C268194349F20C630F
:1017D0009A431143C1604169A26921F4407141F209
:1017E0000043114340F48062C4F201039A42416114
:1017F00002D1FEF7E9FF01E0FEF7D2FFE16963687D
:101800001922B1F5004FA0FB020120D15A00DB0FD5
:10181000FEF7D6FC48F21F51C5F2EB11A0FB0123E5
:101820005A094FF69C73C0F6FF7303F1805302FB15
:101830000300322303EBC000A0FB01014FF4F8705A
:1018400000EA111000EB0210C1F342111CE09A00F3
:101850009B0FFEF7B5FC48F21F51C5F2EB11A0FB40
:1018600001235A094FF69C73C0F6FF7302FB030075
:10187000322303EB0010A0FB0101F02000EA51101D
:1018800000EB0210C1F3431108442168886010BDC9
:1018900000281CBF012070472DE9F04F85B040F2B1
:1018A0000405C2F200052878800700F11C8140F68B
:1018B0000007C4F2020702F09FF938464FF40071A6
:1018C00000224FF00008FEF705FE4020002102F044
:1018D00071FB01284FF0000640F0D18040F2451422
:1018E000C2F200046420207048204FF4D57102F049
:1018F00061FB012840F0968040F2C4554FF000098A
:101900004FF0FF0AC2F2000541F288380DF10F06D0
:101910000DF10E070DF10A044FF0000B8DF80FA02A
:101920008DF80E902846FFF743F90128FAD1284692
:1019300031463A460123CDF80080FFF7B1FA9DF811
:101940000E0004F80B000BF1010BBBF1040FE5D105
:101950009DF80C0040F2040540F6000701284FF006
:101960000006C2F20005C4F202074FF0000840F082
:1019700086809DF80D00AA2840F0818040F245162F
:10198000C2F2000602E000BF307860B1772000218B
:1019900002F010FB0128F7D869204FF0804102F0D7
:1019A00009FB0028F0D13078002867D07A20002188
:1019B000002602F0FFFA002861D140F2C4554FF032
:1019C000FF09C2F2000541F288380DF1110B0DF14B
:1019D000100A00278DF811908DF810602846FFF747
:1019E000E7F80128FAD12846594652460123CDF896
:1019F0000080FFF755FA9DF81000E0550137042FDD
:101A0000E8D19DF80A00062640F2040540F60007DA
:101A1000400658BF0226C2F20005C4F202074FF08A
:101A200000082CE07720002102F0C4FA01284FF0D2
:101A300001060ED86920002102F0BCFA022838BF46
:101A4000022606E04120002102F0B4FA58B12078C5
:101A500048B1022EF6D17720002102F0ABFA01281E
:101A6000F5D86920EFE7207840B150204FF400719D
:101A700002F0A0FA002818BF002600E0002640F27D
:101A80005000C2F20000067038464FF40071012287
:101A9000FEF720FD40F2C454FF20C2F200048DF88E
:101AA00013008DF8128000BF2046FFF781F801284F
:101AB000FAD140F2C45041F28837C2F200000DF171
:101AC00013010DF1120201230097FFF7E9F926B186
:101AD000287800F0FE00287005E040F24410C2F2C1
:101AE000000000210170287805B0BDE8F08F0000EB
:101AF0002DE9F04F87B020B10426304607B0BDE88D
:101B0000F08F15460C46052910D12878022837D0C9
:101B100001283DD00028EFD140F24410C2F200006D
:101B200001780026012908BF0670E6E740F20400AC
:101B3000C2F200000078C00720D140F60007C4F2CE
:101B4000020738464FF4007100224FF00008FEF7FC
:101B5000C1FC0D2C4FF0040600F28D80DFE804F08C
:101B6000071C3D8B8B8B8B8B8B8B8B42444B02F0FA
:101B70008FFBB0F1FF0618BF01267CE00326BCE70F
:101B800040F24410C2F20000007800266870B4E70A
:101B900002F032F80026B0E74920002102F00AFAEC
:101BA00038BB0DF10A00102102F050F908B39DF87E
:101BB0000A0000F0C000402840F080809DF812002C
:101BC0009DF81310800440EA81204FF6004100F593
:101BD0008060C0F2FF3108408FE04FF40070288031
:101BE000002648E0492000E04A20002102F0E2F906
:101BF00050B101263FE07A2000214FF0000A02F0A8
:101C0000D9F940B1042636E02846102102F01EF929
:101C100080F001062FE040F2C4564FF0FF0BC2F2F5
:101C2000000641F288390DF10A070DF11B044FF04F
:101C300000088DF80AB08DF81BA000BF3046FEF7F3
:101C4000B7FF0128FAD13046394622460123CDF8A4
:101C50000090FFF725F99DF81B00B8F1030F05F878
:101C6000010B08F10108E4D340F600070426C4F292
:101C700002074FF0000838464FF400710122FEF7CA
:101C800029FC40F2C454FF20C2F200048DF81B006E
:101C90008DF81A802046FEF78BFF0128FAD140F21A
:101CA000C45041F28837C2F200000DF11B010DF162
:101CB0001A0201230097FFF7F3F81EE79DF80F00C3
:101CC0009DF8143000F00F0000EBD3109DF8133096
:101CD0009DF812609DF810109DF8112003F0030389
:101CE00000EB4300B30901F0030143EA820242EA38
:101CF00081210131073801FA00F0286070E7000007
:101D00002DE9F04182B000284FF004076BD11E4648
:101D1000002B68D040F20400C2F200000078C00737
:101D200022D140F25000C2F20000007840F60008D4
:101D30001446C4F2020840070D4658BF54024046FC
:101D40004FF400710022FEF7C5FB012E0ED1512089
:101D5000214602F02FF970B928464FF4007102F0C5
:101D600075F880F001071BE003273CE05220214674
:101D700002F020F930B1012712E000BF013E05F565
:101D8000007507D028464FF4007102F05FF8044652
:101D90000028F3D14C20002102F00CF984F0010757
:101DA00040464FF400710122FEF794FBFF2040F201
:101DB000C4548DF807000020C2F200048DF806001C
:101DC0002046FEF7F5FE0128FAD140F2C45041F258
:101DD0008836C2F200000DF107010DF10602012361
:101DE0000096FFF75DF8384602B0BDE8F0810000CC
:101DF00000281CBF0120704740F20400C2F200001E
:101E0000007870472DE9F04182B000284FF00407B8
:101E100073D11E46002B70D040F20400C2F20000C5
:101E20000D460178C90723D10078400722D440F23B
:101E30005007C2F20007387840F600081446C4F292
:101E40000208400758BF540240464FF40071002278
:101E5000FEF740FB012E0FD15820214602F0AAF8D0
:101E600038BB2846FE2102F05FFA80F0010721E02E
:101E7000032742E0022740E03878800707D5772023
:101E8000002102F097F85720314602F093F85920CC
:101E9000214602F08FF860B92846FC2102F044FA8E
:101EA00018B1013E05F50075F6D102F0F1F9FF28F1
:101EB00027D0012740464FF400710122FEF70AFBAC
:101EC000FF2040F2C4548DF807000020C2F2000445
:101ED0008DF806002046FEF76BFE0128FAD140F28D
:101EE000C45041F28836C2F200000DF107010DF135
:101EF000060201230096FEF7D3FF384602B0BDE884
:101F0000F08140F2C454FD20C2F200048DF80500B7
:101F10002046FEF74DFE0128FAD140F2C450C2F22D
:101F200000000DF10501012241F288330127FEF77F
:101F3000D7FEBFE7FEE700002DE9F04104688846C0
:101F4000074681B13846414601F0DAFC02283CBF21
:101F50000120BDE8F081411C0CD0A16945468842B2
:101F60000DD2BDE8F081256945B1A069854228BF41
:101F7000012504E04FF0FF30BDE8F08101252E4639
:101F800006E000BF012808BFBDE8F081AE4228D0BE
:101F9000A0690136864228BF022601D3022D20D334
:101FA0003846314601F0ACFC411CDAD00028E9D1BA
:101FB000204631464FF0FF3201F0C0FEB8F1000F6D
:101FC000014606D029B920464146324601F0B6FE08
:101FD000014649B10120012908BF4FF0FF30BDE89B
:101FE000F0810020BDE8F081D4E9050126610239C5
:101FF00088429CBF01386061207940F00100207167
:102000003046BDE8F08100002DE9F04F83B0D0F8F4
:1020100000A00021044600F0EFFA10B103B0BDE8C3
:10202000F08F4FF0FF3804F123064FF0FF0BFF2530
:10203000C4F83080E169504601F098FD0028EDD1E8
:10204000D4F8209099F80010002900F0B08099F899
:102050000B30E52903F03F02A27103D01B070DD519
:102060000F2A0BD0C4F830804FF0FF0B2046002120
:1020700000F0A2F80028DDD0D0E700BF0F2A19D168
:1020800094F82F004006F1D4480606D599F80D5073
:10209000606901F0BF018B4620635FFA8BF08142DB
:1020A000E2D199F80D008542DED1B9F81A0070B37B
:1020B000012075E05FEA0B6110D100224FF0FF3183
:1020C00009EB0103D2B257085B7847EAC21201312B
:1020D0000A291A44F4D1D1B28D429FD094F82F101E
:1020E000C907BFD1AE46A9F101010A25B44632465F
:1020F00011F8017F12F8016F6B1EAB4202D2B7429A
:102100001D46F5D0B74266467546ABD186E799F8CD
:102110000000DAF80C1000F03F0002910D21484356
:10212000CDE90056A0F10D054FF00008012609E0A9
:102130004FF6FF7086421FD1002608F10108B8F162
:102140000D0F1DD044F2C450C0F6000010F8080076
:10215000002E39F80060EBD0632D0DD8304601F029
:1021600007F80299074631F81510084601F000F803
:10217000874201D10135E0E701204FF0FF380DE043
:1021800099F800004FF0FF38400606D52EB10298AE
:1021900030F8150008B1012000E00020DDE900560C
:1021A000ABF1010B002818BF4FF0FF3B5EE70420A6
:1021B00003B0BDE8F08F00002DE9F0470446C06988
:1021C0000427002865D08A4661694FF6FF72C0F285
:1021D0001F0201F1200696425BD83546D4F80090E4
:1021E0006FF35F2545B109EB05003430002720620D
:1021F000F8B26661BDE8F087A1690130E06181B1A4
:10220000B9F80A00104400F5C00010EA562FEAD1D0
:10221000204601F075FB02280DD20227F8B2BDE876
:10222000F087B9F80800B0EB561FDCD80020E06159
:10223000F8B2BDE8F0878046013037D0D9F81800F1
:1022400080450FD2D9F81810A8F10200023988424F
:10225000C4F8188020D2B9F80A10D9F82C2000FB55
:1022600001201AE0BAF1000F19D0A1692046FFF74A
:1022700063FE80460130032814D24FF6F871C0F295
:10228000FF0101EAC00040F20171C0F2020121FA2F
:1022900000F7F8B2BDE8F0870020E061A3E7002076
:1022A0000427C4E7484601F0C9FF18B10127F8B276
:1022B000BDE8F08709F134004FF40071FDF7B8FF75
:1022C000D9F81810A8F102000239884206D2B9F8EC
:1022D0000A10D9F82C2000FB012000E00020B9F8FA
:1022E0000A104FF0000AC9F8300091B101274846A2
:1022F00089F8037001F0A2FF0028CAD1D9F8300094
:10230000B9F80A100AF1010A01308A45C9F830000B
:10231000EDD3A0EB0A00C9F8300093E72DE9F04FA8
:1023200087B0804690F82F0010F0A00F03D0062051
:1023300007B0BDE8F08FD8F8004008F1240BE06842
:102340004FF00B09023800BF30F8021F09F10109F4
:102350000029F9D1DBF8071098F82F30DBF80000DE
:10236000DBF80420CDF80F10D9070392CDE9014026
:1023700072D041F2210540204FF0010AC0F2010560
:1023800005AF009388F82F000299E068DDF80F2070
:10239000039BCBF80010BAF1050F5146CBF807208C
:1023A000CBF8043013D90288514682B1102300BF04
:1023B00002F001040E0444EA41014FEA520248BF10
:1023C0006940013BF4D130F8022F002AEED10720FA
:1023D000062300BF1A4601F00F0303F13006392E21
:1023E00088BF03F137063E5401380909A2F1010301
:1023F000F0D17E2139544FF0000140B11BF801307B
:10240000202B04D0013A01F10101F7D10146019CD2
:10241000072808EB010301F101019ABF3A5C013082
:102420002022082983F82420F2D34046FFF7ECFD50
:1024300030B90AF1010ABAF1640FA5D14FF0640A6C
:10244000BAF1640F03D1072007B0BDE8F08F04286C
:102450001ED1009B88F82F304EF64F40C4F6C46062
:10246000A9FB0001012000EB91059807D8F8006056
:1024700040464FF0000158BF012500F0BDF850B1B3
:10248000042808BF0720019C08B3002800F08980B9
:1024900007B0BDE8F08F002709E000BF0137AF4269
:1024A000EED040460121FFF787FE0028E8D1D8F89A
:1024B0001C10304601F05AFB0028E1D1D8F820105A
:1024C0000978E529EAD00029E8D00027E9E7B5F145
:1024D000010BDAD0D8F81400A0EB4B11404600F005
:1024E0008BF80028D1D14FF0000A232008EB00011F
:1024F0005FFA8AF25308497843EAC21201302E2863
:1025000002EB010AF2D144F2C4594FF6FF77C0F64C
:10251000000900BFD8F81C10204601F027FB002856
:10252000B3D1D8F820000F22E168A0F80B205FFAA1
:102530008BF20D26724300230D3A002680F80DA081
:10254000438300BFBE421CBF31F81260013219F84C
:102550000340002E03F1010300EB040506554FEA8A
:10256000162408BF3E460D2B6C70EBD1BE4202D143
:102570004BF0400106E031F812100029594608BF1F
:102580004BF04001019C01700120E07040460021A9
:10259000FFF712FE00287FF478AFBBF1010BB9D131
:1025A00073E7D8F81C10204601F0E0FA00287FF409
:1025B0006FAFD8F820100022CA618A614A610A61AF
:1025C000CA608A604A600A60D8F8201008F12302C5
:1025D00001390B2312F8017F013B01F8017FF9D18A
:1025E00098F82F10D8F8202001F01801117301215C
:1025F000E17007B0BDE8F08FF0B581B00C461F2147
:10260000CFF6E0710C4202D0022001B0F0BD81682B
:1026100006680546446171B1A1B17089B4EB402FE1
:1026200017D2B269881E023A904222D27289F36AA6
:1026300000FB02301EE0307803282CBFB16A002175
:102640000029EAD13089B0EB541FDDD9B06A0021EE
:1026500010E04702284601F053F90146013018D036
:102660000229D1D3B0698142CED2E41BBC42F1D25F
:10267000D7E700200028C5E90610C5D000EB54209C
:102680006FF35F2431193431C5E90701002001B02F
:10269000F0BD012001B0F0BD40F2B851C2F200011E
:1026A0000A5C002A1CBF0020704701230A180B5443
:1026B00001EB80004168107A0968084740F2B85C75
:1026C000C2F2000C0CEB80035B686044007A1B696B
:1026D0001847000080B540F2B85CC2F2000C0CEB69
:1026E000800EDEF804E06044007ADEF808C0BDE841
:1026F0008040604740F2B851C2F2000101EB800215
:1027000052680844007A51680847000080B540F2DA
:10271000B85CC2F2000C0CEB800EDEF804E0604402
:10272000007ADEF80CC0BDE88040604710B5044672
:1027300000F078FB00B110BD84B1206870B1017861
:1027400061B1A188C288914208D14078FFF7D2FFD9
:1027500000F00100404200F0090000E009200028DC
:1027600018BF10BD2069411E012918D840F2580C2D
:10277000C2F2000C0CEB0110B0F90C304FF0010E5E
:102780009AB2B2F5807218BFD3FA5EF28281100459
:102790004FF0000004BF0A014CF8020000E00220E4
:1027A00001299CBF0021216010BD000070B582B0DE
:1027B00001900091B9B10023CD5C0133202D01D3EC
:1027C0003A2DF9D13A2D3DD10978303909290AD865
:1027D00083F0020353EA010E18BF4FF0FF3EBEF133
:1027E000000F05D533E04FF0FF3EBEF1000F2ED4B1
:1027F00040F2540CC2F2000C5CF82E307BB140F277
:1028000058040021C2F20004002500BF66599E4210
:1028100008BF61511035102DF8D000211970002823
:102820001CBF002101704CF82E0000284FF0000062
:1028300006D0012A04D1684601A9002200F0F8FC64
:1028400002B070BD4FF0000EBEF1000FD0D50B20CE
:1028500002B070BD2DE9F04F91B0109170B302F04D
:102860003F0B1546824610A802A95A4600F0E0FC2C
:102870000746002840F0CB81DDF80890109903A8A6
:10288000CDF80C9000F09EFE0746C8B11BF01C0F5F
:1028900039D0002F50D0042F61D140F258010020D0
:1028A000C2F200010A682AB10130012801F11001C9
:1028B000F8D0022002284ED1122750E00927ABE1C0
:1028C0009DF93B0000283FD440F2580C039B059F24
:1028D000089EC2F2000C0CF104000021002205E069
:1028E00001210132012A00F110001DD150F8044CE1
:1028F000002CF5D09C42F4D10468BC42F1D144686C
:10290000B442EED111E0002F40F0AE809DF81200ED
:10291000C10600F18C80C007384618BF07205FEA67
:102920008B7148BF07469FE00222022A0ED1002782
:10293000002908BF1227A9E79DF8120010F0110F17
:102940006ED0072787B18FE006279FE715F03E0F6F
:102950006FD010279AE703A8FFF7E0FC07464BF07B
:10296000080B002F40F080801BF008007CD001F0A5
:102970002FF80B99020A8873030C060E8875202025
:10298000CA730B744E74CA750B764E76C87299F87A
:102990000000B1F81A80032805D1487D0A7D0006A1
:1029A00040EA024080440020488399F80020032A2E
:1029B00008BF8882C8610120B8F1000F89F80300C0
:1029C00052D0D9F83010B8F1010F26D0039DA86974
:1029D000404522D903AC4746019102E08642374682
:1029E00031D22046394600F08BFF064601302CD00C
:1029F0004EB3012E2BD028463946002201F09EF915
:102A000038BBD5E90510821E9142E7D22A790131FF
:102A1000696142F001012971E0E7022727BB1BE051
:102A20005FEA4B7048BF0827002F9DD01CE00427A9
:102A30001AE00CEB02108089A0F58070B0FA80F0EB
:102A40004009070122E7002704E0012702E00227EE
:102A500000E0074601993FB9484601F087F807466C
:102A6000A8F10100C9F810001FB1002F40F0CF807D
:102A70005AE00BF008004BEAC00BD9F830000B9974
:102A800040F2580C039A059B089EC2F2000CCAE95A
:102A900009010CF10405002005E000BF0130012808
:102AA00005F110050AD155F8044C9442F6D12C6872
:102AB0009C42F3D16C68B442F0D100E002200228BD
:102AC0001CD140F2580EC2F2000E0020734600BF27
:102AD0001E682EB10130012803F11003F8D0022046
:102AE00002284FF0000618D00599089D0EEB001340
:102AF00004014EF80420C3E901159E810CEB00117E
:102B00008A89BBF1020F01D2013204E00AB100262A
:102B100003E04FF48072461C8A81CAF81060002ED0
:102B200008BF0227002F72D10B9899F80010458B2F
:102B3000032905D1417D027D090641EA02410D4488
:102B4000CAF80850C6690020CAF80C60CAF82C0000
:102B5000CAF80090B9F806100AF13008AAF8041073
:102B60008AF81500CAF82000CAF8180040464FF449
:102B700000718AF814B0FDF75BFB5FEA8B6046D505
:102B8000002E44D0B7FA87F04FEA5010CAF8186008
:102B9000BFB9B9F80A104C02A64212D950462946CC
:102BA00000F0AEFE0228054638BF0227013008BFFC
:102BB0000127F8B2B0FA80F1361B00284FEA511015
:102BC000EAD0CAF81C5010B330466FF35F20F0B162
:102BD000D9F81810A81E0239884206D2B9F80A108E
:102BE000D9F82C2000FB012000E0002070B100EBA0
:102BF0005622CAF8202099F80100414601230124F9
:102C0000FFF768FD002818BF274600E002273806B6
:102C10001CBF0020CAF80000F8B211B0BDE8F08F68
:102C20002DE9F04F83B00446994616460F46002022
:102C30001860ACB1206880B1017871B1A188C288F8
:102C400091420AD14078FFF755FD00F00100414262
:102C500080F0010001F0090503E00925002000E0F3
:102C60000925002814BFD4F800B04FF0000B002D48
:102C700040F0D380657D002D40F0CF80207DC007DF
:102C800001D10725C9E0E068A169401AB04238BF08
:102C90000646002E00F0BB8004F1300004F12F083E
:102CA0000190CDF808800EE06802A1690744014454
:102CB000A161D9F80010361A01444FF00005C9F897
:102CC000001000F0AA80A169C80513D0A269791E7E
:102CD0006FF35F22C2F50070B04228BF3046424415
:102CE000034600BF12F8015F013B01F8015FF9D113
:102CF000DBE700BFBBF80A00013810EA512822D1F7
:102D000099B1E26A9AB1506868B12368490A5B894F
:102D10000832B1FBF3F100BF81420DD3091A5068AC
:102D200008320028F8D1002008E0A06806E0E16938
:102D3000204600F0E5FD01E010680844022868D351
:102D4000411C68D0E061E069DBF8181002380239F4
:102D5000884206D2BBF80A10DBF82C2000FB0120C9
:102D600000E00020002854D0750A00EB080A2CD09F
:102D7000BBF80A1008EB050088429BF8010088BFE9
:102D8000A1EB0805394652462B46FFF7A3FC002865
:102D900041D194F91400DDF80880B0F1FF3F3FF70E
:102DA00083AF206AA0EB0A00A842BFF47DAF07EB17
:102DB000402001384FF40071424600BF12F8013F35
:102DC000013900F8013FF9D16EE7226ADDF8088089
:102DD000524519D094F91400B0F1FF3F0BDC9BF879
:102DE0000100019901230125FFF790FCA0B9207D86
:102DF00000F07F0020759BF80100019952460123E5
:102E00000125FFF767FC38B9C4F820A05EE700256C
:102E100003E0022500E001256575284603B0BDE802
:102E2000F08F0000F0B581B0044690B1206880B109
:102E3000017871B1A188C28891420AD14078FFF728
:102E400059FC00F00100414280F0010001F0090648
:102E500001E009260020002814BF25680025EEBBEC
:102E6000207D41063AD540B2B0F1FF3F2DDD00F0A4
:102E7000AFFD616A0746284600F078FE064668BB4B
:102E8000A06AC17A41F02001C172A1682268418321
:102E90001278032A03D10A0C090E02754175E16804
:102EA0008775C161390AC175390C0176390E4176D1
:102EB000002141820120E870284601F055F9217D6A
:102EC00001F0BF01217501B0F0BD6878226A04F1FC
:102ED000300101230126FFF719FC10B1304601B083
:102EE000F0BD207D00F07F002075C0E72DE9F04F98
:102EF00081B0994616460F4604460021196090B1EC
:102F0000206880B1017881B1A188C28891420CD13A
:102F10004078FFF7EFFB00F00100424280F0010132
:102F200002F0090003E0092001E009200021002946
:102F300014BFD4F800B04FF0000B10B101B0BDE8E1
:102F4000F08F607D0028F9D1207D800703D4072011
:102F500001B0BDE8F08FA069C043B04238BF06465B
:102F6000002E00F0D18004F1300004F12F08009011
:102F700011E06802A169E2680144A161914288BF41
:102F80000A46D9F8001007440144361AE260C9F82D
:102F9000001000F0B980A169C80517D0A1697A1E98
:102FA0006FF35F21C1F50070B04228BF3046414445
:102FB000034600BF12F8015F013B01F8015FF9D140
:102FC000217D41F080012175D4E700BFBBF80A00E4
:102FD000013810EA512C2DD1B1B1E26ACAB1506862
:102FE00070B12368490A5B890832B1FBF3F100BF75
:102FF0008142C0F08280091A506808320028F7D157
:103000000020411C0DD17DE0A06840B92046002180
:1030100001E0E16920466546FEF78EFFAC46411CA3
:1030200070D0002870D0012876D0A168E061002916
:1030300008BFA06094F91400B0F1FF3F0EDC9BF8CC
:103040000100226A009901236546FFF75FFB002813
:1030500058D1207DAC4600F07F002075E069DBF898
:10306000181002380239884206D2BBF80A10DBF881
:103070002C2000FB012000E0002000284CD0750A25
:1030800000EB0C0A27D0BBF80A100CEB05008842B5
:103090009BF8010088BFA1EB0C05394652462B4630
:1030A000FFF734FB70BB206AA0EB0A00A842BFF414
:1030B00060AF07EB402001384FF40071424600BF7B
:1030C00010F8013F013902F8013FF9D1207D00F0ED
:1030D0007F0020754DE7206A50450BD0E068A1695C
:1030E000814207D29BF80100009952460123FFF765
:1030F000F1FA38B9C4F820A050E710680844411C20
:103100007FF48FAF012008E0207D40F04000207563
:10311000002001B0BDE8F08F0220607501B0BDE86D
:10312000F08F0000802838BF704769B1FF2884BF46
:103130000020704744F2D251C0F6000101EB40007C
:103140006FF0FF01405A704744F2D2520021C0F69E
:10315000000200BF32F81130834204D07F2901F110
:103160000101F7D3802101F18000C0B27047000057
:1031700010B544F21473C0F6000344F2D07C1A4632
:10318000C0F6000CB0F5805F38BF6246B2F800E0D0
:10319000BEF1000F1DD00233B0F5805F38BF0CF1D7
:1031A000020300BF1FFA8EFC604512D31988043257
:1031B000CBB213FA8EF484420DD8B1F5807F28BFCC
:1031C000002302EB4302134633F802EBBEF1000F7B
:1031D000E8D180B210BD090A0829FAD8DFE801F069
:1031E000050B1215181B1E212400A0EB0C0032F851
:1031F000100080B210BDA0EB0E0101F00101401AD9
:1032000080B210BD103880B210BD203880B210BD21
:10321000303880B210BD1A3880B210BD083080B28C
:1032200010BD503880B210BDA0F5E35080B210BD83
:103230002DE9F04F85B000230B6003681546FBB104
:10324000002200BF9F5C0132202F01D33A2FF9D119
:103250003A2F0ED11F78A7F13004092C10D84FF067
:10326000FF36022A4FF0010708BF002C03D11A4491
:1032700002600027002647B10B2005B0BDE8F08FA3
:103280004FF0FF360127002FF6D140F25400C2F272
:10329000000050F8264074B30C60207888B1607844
:1032A000FFF728FA0146C0070BD115F0FE004FEAE0
:1032B00041714FF00A0218BF02EAE17005B0BDE8A3
:1032C000F08F00202070F0B26670FFF7E5F9C107BB
:1032D00015D115F0FE0F18BF10F0040013D14FF0F8
:1032E000FF300025206320460021E57000F03EFC01
:1032F00068B1042039E00C2005B0BDE8F08F032050
:1033000005B0BDE8F08F0A2005B0BDE8F08FB4F835
:1033100032024AF65521884222D194F83400E92835
:1033200005D0EB281FD194F8360090281BD194F8D3
:103330006B2094F86C3094F86A10120244F2461034
:1033400042EA0342C0F254001144814205D0D4F84D
:10335000861000F14C50814205D10025002004E088
:103360000320002501E002200125002D57D001AEE9
:1033700000203146221892F8F6311030002B14BF8D
:10338000D2F8FA210022402841F8042BF2D144F26D
:103390004618C0F254084FF0000A4AF655294FF07B
:1033A000FF3B002756F8275075B32046294684F87E
:1033B00003A0C4F830B000F0D9FB08B1042024E029
:1033C000B4F8320248451FD194F83400E92805D0FA
:1033D000EB2822D194F8360090281ED194F86B1077
:1033E00094F86C2094F86A00090241EA024108440A
:1033F000404505D0D4F8860008F14C5188420CD1E4
:103400000021002002E000BF03200121022F07D885
:10341000002907F10107C5D102E00220F5E70025E8
:10342000042803D1012005B0BDE8F08F012825D87C
:10343000B4F83F00B0F5007F20D1B4F84A0000286E
:1034400008BFA06D94F84430E061591E0129A370B3
:1034500014D894F84120511E1140B2FA82F718BFD7
:1034600001217F093943628108D194F8457094F8AD
:10347000461047EA01213F07218103D00D2005B006
:10348000BDE8F08FB4F84760002E08BF666DB4F851
:103490004270002FF2D000FB03FE0EEB11133B44F1
:1034A0009E42EBD3F61A9642E8D3B6FBF2F24FF601
:1034B000F6764FF00308B24240F6F57638BF4FF08B
:1034C0000208B24298BF4FF0010802F1020CEE1957
:1034D0002B44B8F1030FC4F818C0C4E90856E362DE
:1034E00008D1B4F85E201143C8D1216EA1624FEA21
:1034F0008C0111E00029C1D0A2F6F67306EB0E0193
:103500001B0B0E2BA16291BF4FEA4C010CEB4C013F
:1035100002F0010202EB510101F2FF11B0EB512F59
:10352000ACD34FF0FF30C4E904008020B8F1030FA2
:10353000207125D1B4F86400012821D1691C2046EE
:1035400000F014FBE0B9B4F832124AF6552200201C
:103550009142207114D1606B45F25221C4F2611185
:1035600088420DD1D4F8180247F27221C6F24111F7
:10357000884205D1D4F81C02D4F82012C4E9041002
:1035800040F2780084F80080C2F20000018840F226
:1035900058020131018040F27A00E180C2F200005D
:1035A0000021C2F200020023E060D058A04208BF10
:1035B000D1501033102B4FF00000F6D005B0BDE80D
:1035C000F08F00002DE9F04F89B0D0F8008004465C
:1035D0000D4600E0013528785C28FBD02F28F9D073
:1035E0000020A0602878202809D2802220460021CF
:1035F00084F82F2009B0BDE8F04FFEF7FDBF04F1BD
:103600002400079008F13400089044F20470C0F6DA
:1036100000000138069044F20B70C0F60000A0F1E3
:10362000010A00E0A06021682878D1F80C902028D9
:1036300004D201224FF0040B002137E000270126BD
:1036400009E000BF29F81700A85D791C721C20282A
:1036500016460F4627D35C281BD02F2819D0642F7D
:1036600010D0C0B20121FFF75DFD58B17F28E9D825
:10367000514600BF11F8012F002A18BF9042F9D11E
:10368000002ADFD006200022002A58D121E100BF05
:103690000136A85D5C28FBD02F28F9D04FF0000B35
:1036A0003946324602E04FF0040B00BF00291544B2
:1036B0003ED0B1FA81F04309484209EB410708E0E6
:1036C000421C4FF0000141F10003023F82421046CC
:1036D0002ED337F8021C2E29F2D02029F0D0002258
:1036E000D9073A8027D1079940424FF0203200276E
:1036F000C1F807204A600A6001E000BF013739F8CD
:1037000017102E29FAD02029F8D0A9F10202002F93
:1037100018BF4BF0030BCDF8148000BF014678B3FF
:1037200032F811002E28A1F10100F7D1013028E074
:10373000002229F811200620002A00F0CA80204625
:10374000FEF762FC94F82F10002840F0BD80490776
:1037500000F1BF80A079C00640F1BE806069089981
:103760006FF35F20014498F80020488B032A7FF410
:1037700059AF4A7D097D120642EA0141084451E7EA
:1037800000200090A1F101084FF0080E4FF0010C4D
:1037900000230026002001904BF00302394601E08F
:1037A0000131934639F811002028F9D02E2803D191
:1037B0008845F5D102E000BF002859D0764501F1D7
:1037C00001073FD288453DD0802818D30021CDE99C
:1037D00002ECCDF810A09A46FFF7A4FC38B144F2F1
:1037E0004451C0F60001084410F8800C00E00020AD
:1037F0005346DDF810A0DDE902EC4BF0020B40B1BE
:10380000069900BF11F8012F002A18BF9042F9D184
:103810003AB14BF0030B5F20A119013681F8240067
:10382000BAE7A0F1410189B2192902D843F0020395
:10383000F2E7A0F1610189B219299CBF43F00103AD
:103840002038E9E70198C0074BF003000FD1884505
:1038500018BF8346009887420AD8074601209B007C
:103860004FF00B0E4FF0000C0190082694E78346B2
:103870000798DDF814800078E52802D10798052123
:1038800001705FEACC7018BF9B0003F0030103F0E6
:103890000C0003294BF0020208BF93460C2808BF16
:1038A00093465FEA8B7207D4012908BF4BF0100BD7
:1038B000042808BF4BF0080B0020012284F82FB029
:1038C000002A7FF43CAF04E0042802D1490758BF26
:1038D000052009B0BDE8F08F052009B0BDE8F08FE4
:1038E00080B582B0019040F21C60C2F2000001A9D4
:1038F00001224FF0FF33FDF765FC019802B080BD57
:1039000002293CBF01207047F0B581B005680C4624
:10391000A86988422CD9287803282CD0022845D0C1
:10392000012825D1686A04EB540700EB572128468B
:1039300000F01CF9002840D17E1C6FF35F27696AF4
:10394000E81990F8347001EB5621284600F00EF982
:1039500098BB6FF35F26A81990F83400E20747EA96
:10396000002108466FF31F3018BF080901B0F0BDF1
:10397000012001B0F0BD686A00EBD411284600F0C8
:10398000F5F8D0B904F07F0005EB800191F83630EE
:1039900091F8340091F8352091F837101B0243EA72
:1039A0000141114461F31B2001B0F0BD686A00EBD6
:1039B0001421284600F0DAF818B14FF0FF3001B0BA
:1039C000F0BDE0B205EB4000808E01B0F0BD00001C
:1039D0000020704786B040F20008C4F20208FCF7ED
:1039E00093FDFDF787FD002443F630000594CDE9F3
:1039F0000344CDE901440094C4F2020001680022AE
:103A000041F08001016001680F2601F08001009102
:103A100000990094016841F001010160016801F022
:103A20000101009100990094016841F002010160D8
:103A3000016801F00201009100990094016841F0D1
:103A400008010160016801F00801009100990094EB
:103A5000016841F00401016000680F2100F00400DA
:103A6000009000984046FCF735FD08F58067384621
:103A700040F20341002240F2034BFCF72BFD08F516
:103A8000006528464FF4007101224FF400794FF091
:103A9000010AFCF71FFDCDE9016A01AE404631463F
:103AA000CDE90344FCF744FC38463146CDE901BA80
:103AB000CDE90344FCF73CFC4FF40050CDE9010490
:103AC000384631460394FCF733FC4FF4F850CDE907
:103AD000010408F5406031460394FCF729FC2846B0
:103AE0003146CDE9019ACDE903A4FCF721FC4FF45E
:103AF000807001A981E8110440463146FCF718FCAA
:103B000040F21C60A8F57041C2F200000C234FF493
:103B1000E13280E81600C0E90344C0E90534C4611D
:103B2000FDF7E6FA08B172B6FEE740F2C450A8F518
:103B3000E231C2F200004FF48272182380E81600CE
:103B40000A21C0E90344C0E90549C361C0E908444A
:103B5000C0E90A41FDF730F808B172B6FEE7FDF79B
:103B6000EFFB00BFFDF7FEFBFCE700002DE9F04393
:103B700081B0076B8F4201D1002638E00446C0783F
:103B8000894610B3607804F1340841463A4601236F
:103B90000126FEF7BBFD4FF00005C0B9606AE16980
:103BA000381A8842E57010D2A678022E0DD301256E
:103BB000E16960780F4441463A460123FEF7A6FDCD
:103BC000013E012EF4D8002601E00026012575B142
:103BD000607804F134014A4601230125FEF77AFD9D
:103BE00000281CBF4FF0FF392E46C4F830903046F5
:103BF00001B0BDE8F08300002DE9F04F85B040F63C
:103C00000008C4F2020840464FF400710122FCF79C
:103C100061FC40F2C4550024FF27C2F200050DF1FB
:103C20000F0600BF8DF80F702846FCF7C1FF012872
:103C3000FAD128463146012241F28833FDF750F887
:103C4000092C04F10104EDD340464FF40071002229
:103C50000024FCF73FFC402040F2C4558DF80900D9
:103C600095200DF10907C2F2000504AECDF80A4017
:103C70008DF80E00385D8DF8100000BF2846FCF767
:103C800097FF0128FAD128463146012241F28833B4
:103C9000FDF726F80134062CECD140F2C45541F66C
:103CA000FF744FF0FF090026C2F2000541F2883B85
:103CB0000DF1120A0DF111078DF812908DF81160B7
:103CC0002846FCF775FF0128FAD1284651463A46A6
:103CD0000123CDF800B0FDF7E3F89DF81110013C89
:103CE00046F10000012918BF0028E5D140464FF4F5
:103CF00000710122FCF7EEFB40F2C454FF20C2F237
:103D000000048DF8130000BF2046FCF751FF012886
:103D1000FAD140F2C450C2F200000DF113010122A9
:103D200041F288330124FCF7DBFF40F24410C2F279
:103D30000000047005B0BDE8F08F000002293CBF10
:103D4000022070472DE9F047054680690E468842FB
:103D500012D928781446032811D0022831D001281E
:103D60000AD1686A06EB560700EB57212846FFF791
:103D7000FDFEB8B3BDE8F0870220BDE8F087686AB1
:103D800000EBD6112846FFF7F1FE002818BFBDE86A
:103D9000F08706F07F0105EB810191F8372004F0F0
:103DA000706302F0F00243EA0262230A81F83530C0
:103DB000230C120E81F8344081F8363081F8372018
:103DC0000BE0686A00EB16212846FFF7CFFE0028BB
:103DD000D0D1F1B205EB41018C86EE1C012131708E
:103DE000BDE8F08705F1340807F1010A5FEAC679FA
:103DF0006FF35F2701D1E0B205E018F8070000F08B
:103E00000F0064F30B10696A08F8070001202E46C2
:103E100006F8030F01EB5A212846FFF7A7FE0028FA
:103E2000A8D1B9F1000F6FF35F2A09D118F80A1071
:103E3000C4F3032201F0F001114408F80A10CDE7A1
:103E4000C4F3071108F80A10C8E700002DE9F04F85
:103E500085B00C4640F2451140F2C4568346C2F28A
:103E600000010A204FF0000AC2F2000641F2883534
:103E70000DF10B080DF10A09087000BFFF208DF845
:103E80000B008DF80AA000BF3046FCF791FE012818
:103E9000FAD1304641464A4601230095FDF700F825
:103EA0009DF80A70FF2F06D140F24510C2F20000C3
:103EB00000780028E2D1FE2F73D140F2C4564FF0B3
:103EC000FF084FF00009C2F2000641F2883A00BF35
:103ED0008DF80D808DF80C903046FCF769FE0128B6
:103EE000FAD130460DF10D0103AA0123CDF800A04F
:103EF000FCF7D6FF9DF80C008DF80F808BF80000C2
:103F00008DF80E903046FCF753FE0128FAD130466A
:103F10000DF10F010DF10E0201230BF10205CDF899
:103F200000A0FCF7BDFF9DF80E00023C8BF80100DD
:103F3000AB46CDD1FF2040F2C4548DF811000020D3
:103F4000C2F200048DF810002046FCF731FE012873
:103F5000FAD140F2C454C2F2000441F288360DF1A5
:103F6000110104AA204601230096FCF799FFFF20C7
:103F70008DF8130000208DF8120000BF2046FCF7DA
:103F800017FE0128FAD140F2C45041F28836C2F23D
:103F900000000DF113010DF1120201230096FCF750
:103FA0007FFFA7F1FE00B0FA80F0400905B0BDE840
:103FB000F08F00002DE9F04784B00D46044600F074
:103FC00067F9FF2801D0FF20C9E040F2C456C2F2D1
:103FD00000068DF8064000BF3046FCF7E9FD0128D9
:103FE000FAD140F2C456C2F200060DF10601304685
:103FF000012241F28833FCF773FE280E8DF807008A
:104000003046FCF7D5FD0128FAD140F2C456C2F281
:1040100000060DF107013046012241F28833FCF71A
:104020005FFE280C8DF808003046FCF7C1FD012822
:10403000FAD140F2C456C2F2000602A9304601226B
:1040400041F28833FCF74CFE280A8DF8090000BFC6
:104050003046FCF7ADFD0128FAD140F2C456C2F259
:1040600000060DF109013046012241F28833FCF7C8
:1040700037FE8DF80A5000BF3046FCF799FD012845
:10408000FAD140F2C455C2F200050DF10A012846EA
:10409000012241F28833FCF723FE0020402C08BFA8
:1040A0006FF06A00482C08BF6FF078008DF80B00A5
:1040B0002846FCF77DFD0128FAD140F2C450C2F237
:1040C00000000DF10B01012241F2883341F28838E2
:1040D000FCF706FE4C2C1BD1FF2040F2C4548DF897
:1040E0000D000020C2F200048DF80C002046FCF701
:1040F0005FFD0128FAD140F2C45041F28837C2F284
:1041000000000DF10D0103AA01230097FCF7C8FE82
:1041100040F2C4540A274FF0FF094FF0000AC2F2E0
:1041200000040DF10F050DF10E0600BF8DF80F9084
:104130008DF80EA02046FCF73BFD0128FAD1204661
:10414000294632460123CDF80080FCF7A9FE9DF9EF
:104150000E00B0F1FF3F02DC013F3906E6D1C0B2EC
:1041600004B0BDE8F08700002DE9F04381B00446BB
:10417000C07828B3266B607804F13409494632468A
:1041800001234FF00108FEF7C1FA4FF00005D0B946
:10419000606AE169301A8842E57011D2A778022F6F
:1041A0000ED30125E16960780E4449463246012369
:1041B000FEF7ACFA013F012FF4D84FF0000802E0FF
:1041C0004FF000080125A5B32078032828D12079D5
:1041D000012825D104F1340630464FF40071FCF774
:1041E00027F84AF65520A4F8320245F25220C4F2CC
:1041F0006110606347F27220C6F24110D4E90421D5
:10420000C4F81802206AC4F82022421C6078C4F85E
:104210001C12314601232263FEF778FA0020207138
:10422000607800210022FEF749FA002818BF4FF0FD
:104230000108404601B0BDE8F0830000F0B581B050
:104240000446C078F8B1256B607804F13406314635
:104250002A4601230127FEF759FAA8B9606AE169E5
:10426000281A00278842E7700ED2A778022F0AD3B7
:10427000E16960780D4431462A460123FEF746FA8B
:10428000013F012FF4D80027384601B0F0BD0000EF
:104290002DE9F04782B040F24618C2F20008322001
:1042A00088F80000FF2040F2C4548DF8050000207B
:1042B000C2F200048DF804002046FCF779FC0128C6
:1042C000FAD140F2C454C2F2000441F288390DF12F
:1042D000050101AA20460123CDF80090FCF7E0FD7E
:1042E0004FF0FF0A00270DF107050DF1060600BF8C
:1042F0008DF807A08DF806702046FCF759FC0128C0
:10430000FAD12046294632460123CDF80090FCF729
:10431000C7FD9DF80600FF2803D098F8001000297B
:10432000E6D102B0BDE8F0872DE9F04F85B00D462B
:104330000446FFF7ADFFFF2818D140F2C456C2F281
:1043400000068DF8095000BF3046FCF731FC01280B
:10435000FAD140F2C450C2F200000DF1090101226D
:1043600041F28833FCF7BCFCFD2D03D1002005B0E1
:10437000BDE8F08F40F2C4550026C2F200050DF1F1
:104380000A080DF10B0700BF20788DF80A0000BF66
:104390002846FCF70DFC0128FAD1284641460122A7
:1043A00041F28833FCF79CFC60788DF80B0000BF6D
:1043B0002846FCF7FDFB0128FAD1284639460122A0
:1043C00041F288330234FCF78BFC013E3006DBD12E
:1043D000FF2040F2C4548DF80D000020C2F200040A
:1043E0008DF80C002046FCF7E3FB0128FAD140F2DF
:1043F000C454C2F2000441F288370DF10D0103AA42
:10440000204601230097FCF74BFDFF208DF80F009D
:1044100000208DF80E0000BF2046FCF7C9FB0128E4
:10442000FAD140F2C454C2F2000441F288380DF1CE
:104430000F010DF10E0220460123CDF80080FCF79C
:104440002FFD4FF000094FF0FF0A0DF1110B04AEE4
:10445000002500BF8DF811A08DF810902046FCF7C4
:10446000A7FB0128FAD12046594632460123CDF850
:104470000080FCF715FD9DF8100000F01F07052FC8
:1044800002D00135412DE5D140F2C4544FF0FF0870
:104490004FF00009C2F2000441F2883A0DF1130511
:1044A0000DF112068DF813808DF812902046FCF75E
:1044B0007FFB0128FAD12046294632460123CDF858
:1044C00000A0FCF7EDFC9DF812000028EAD0781F50
:1044D000B0FA80F0400905B0BDE8F08F014A02490A
:1044E00000F013B8E13800080000002002E008C81E
:1044F000121F08C1002AFAD170477047002001E05E
:1045000001C1121F002AFBD170472DE9F041164668
:104510000F460446002503E03946B047641C6D1C75
:1045200020780028F8D12846BDE8F081000000007E
:104530000000000001020304060708090000000053
:104540000102030443554541414141434545454925
:10455000494941414592924F4F4F5555594F554FFB
:104560009C4F9E9F41494F55A5A5A6A7A8A9AAABB8
:10457000ACADAEAFB0B1B2B3B4414141B8B9BABB62
:10458000BCBDBEBFC0C1C2C3C4C54141C8C9CACBFE
:10459000CCCDCECFD1D145454549494949D9DADBC2
:1045A000DCDD49DF4FE14F4F4F4FE6E8E855555509
:1045B0005959EEEFF0F1F2F3F4F5F6F7F8F9FAFBEA
:1045C000FCFDFEFF01030507090E10121416181C4E
:1045D0001E00C700FC00E900E200E400E000E50086
:1045E000E700EA00EB00E800EF00EE00EC00C4009A
:1045F000C500C900E600C600F400F600F200FB00AA
:10460000F900FF00D600DC00F800A300D800D700B6
:104610009201E100ED00F300FA00F100D100AA00E0
:10462000BA00BF00AE00AC00BD00BC00A100AB00F2
:10463000BB0091259225932502252425C100C200A7
:10464000C000A9006325512557255D25A200A500BE
:104650001025142534252C251C2500253C25E30098
:10466000C3005A25542569256625602550256C25EB
:10467000A400F000D000CA00CB00C8003101CD007A
:10468000CE00CF0018250C2588258425A600CC0057
:104690008025D300DF00D400D200F500D500B5009E
:1046A000FE00DE00DA00DB00D900FD00DD00AF0017
:1046B000B400AD00B1001720BE00B600A700F7009F
:1046C000B800B000A800B700B900B300B200A02540
:1046D000A00053544D33322E545854004E4F204EA8
:1046E000414D4520202020464154202020202000FC
:1046F0004E4F204E414D452020202046415433321C
:10470000202020002B2C3B3D5B5D00222A3A3C3EC2
:104710003F7C7F007D1D0100632C001E9601A01EC2
:104720005A01001F0806101F0606201F0806301F2A
:104730000806401F0606511F0700591F521F5B1F26
:10474000541F5D1F561F5F1F601F0806701F0E005D
:10475000BA1FBB1FC81FC91FCA1FCB1FDA1FDB1F11
:10476000F81FF91FEA1FEB1FFA1FFB1F801F080627
:10477000901F0806A01F0806B01F0400B81FB91F2D
:10478000B21FBC1FCC1F0100C31FD01F0206E01FB9
:104790000206E51F0100EC1FF21F0100FC1F4E2165
:1047A0000100322170211002842101008321D024D4
:1047B0001A05302C2F04602C0201672C0601752C81
:1047C0000201802C6401002D260841FF1A0300001D
:1047D00061001A03E0001703F8000703FF0001005F
:1047E00078010001300132010601390110014A014E
:1047F0002E017901060180014D00430281018201F1
:1048000082018401840186018701870189018A016F
:104810008B018B018D018E018F019001910191011E
:1048200093019401F60196019701980198013D02C8
:104830009B019C019D0120029F01A001A001A201FA
:10484000A201A401A401A601A701A701A901AA012F
:10485000AB01AC01AC01AE01AF01AF01B101B201DE
:10486000B301B301B501B501B701B801B801BA018F
:10487000BB01BC01BC01BE01F701C001C101C20105
:10488000C301C401C501C401C701C801C701CA01F0
:10489000CB01CA01CD011001DD0101008E01DE0155
:1048A0001201F3010300F101F401F401F801280100
:1048B000220212013A020900652C3B023B023D0232
:1048C000662C3F0240024102410246020A015302A5
:1048D000400081018601550289018A0158028F0139
:1048E0005A0290015C025D025E025F029301610266
:1048F00062029401640265026602670297019601F2
:104900006A02622C6C026D026E029C0170027102DE
:104910009D01730274029F01760277027802790288
:104920007A027B027C02642C7E027F02A601810255
:104930008202A9018402850286028702AE01440236
:10494000B101B20145028D028E028F0290029102E6
:10495000B7017B030300FD03FE03FF03AC03040068
:104960008603880389038A03B1031103C20302008B
:10497000A303A303C4030803CC0303008C038E0327
:104980008F03D8031801F2030A00F903F303F403B9
:10499000F503F603F703F703F903FA03FA03300408
:1049A000200350041007600422018A043601C10468
:1049B0000E01CF040100C004D004440161052604A7
:1049C00000000000E849000800000020500000003E
:1049D000EC440008384A000850000020800E000017
:1049E000FC4400080000000000000000010000007E
:1049F0000024F40091180008F11D0008011D0008B2
:104A0000051E0008F11A0008010000001000000057
:104A1000546869732069732053544D333220776F83
:104A2000726B696E6720776974682046617446739B
:084A300000000000000000007E
:040000050800018965
:00000001FF
