:020000040800F2
:10000000980400209D010008B1230008E5210008A4
:10001000AD230008AD080008A92B0008000000006F
:10002000000000000000000000000000B1240008F3
:10003000B10800080000000021240008092500087C
:10004000B7010008B7010008B7010008B7010008B0
:10005000B7010008B7010008B7010008B7010008A0
:10006000B7010008B7010008B7010008B701000890
:10007000B7010008B7010008B7010008B701000880
:10008000B7010008B7010008B7010008B701000870
:10009000B7010008B7010008B7010008B701000860
:1000A000B7010008B7010008B7010008B701000850
:1000B000B7010008B7010008B7010008B701000840
:1000C000B7010008B7010008B7010008B701000830
:1000D000B7010008992B0008B7010008B701000814
:1000E000B7010008B7010008B7010008B701000810
:1000F000B7010008B7010008B7010008B701000800
:10010000B7010008B7010008B7010008B7010008EF
:10011000B7010008B7010008B7010008B7010008DF
:10012000B7010008B7010008B7010008B7010008CF
:10013000B7010008B7010008B7010008B7010008BF
:10014000B7010008B7010008B7010008B7010008AF
:10015000B7010008B7010008B7010008B70100089F
:10016000B7010008B7010008B7010008B70100088F
:10017000B7010008B7010008B7010008000000003F
:10018000B7010008B7010008DFF80CD000F0A6FAAC
:1001900000480047912C000898040020064880473A
:1001A00006480047FEE7FEE7FEE7FEE7FEE7FEE75C
:1001B000FEE7FEE7FEE7FEE7CD250008890100081F
:1001C0002DE9F05F0546002092469B46884606468C
:1001D000814640241BE0284641464746224600F01F
:1001E0007DF853465A46C01A914110D3114618461D
:1001F000224600F064F82D1A67EB01084F462246AC
:100200000120002100F05BF817EB00094E41201E91
:10021000A4F10104DFDC484631462A464346BDE8E6
:10022000F09FD2B201E000F8012B491EFBD27047CB
:100230000022F6E710B513460A4604461946FFF7B2
:10024000F0FF204610BD30B505462A460B4612F891
:10025000010B13F8014B08B1A042F8D01CB10028E3
:1002600002D06D1CF1E7284630BD421C10F8011B7E
:100270000029FBD1801A704770B5064602F028FDB0
:10028000046805460A220021304600F037F82C6049
:1002900070BD30B50B46014600202022012409E044
:1002A00021FA02F59D4205D303FA02F5491B04FA2F
:1002B00002F52844151EA2F10102F1DC30BD202A0E
:1002C00004DB203A00FA02F1002070479140C2F1AD
:1002D000200320FA03F3194390407047202A04DBDF
:1002E000203A21FA02F00021704721FA02F3D040AF
:1002F000C2F1200291400843194670472DE9F047AA
:1003000091460F4680460446002614F8015B2DB145
:1003100000F00EFA0068405DC007F6D12B2D02D028
:100320002D2D18D0641E4A463946204600F004FAA6
:1003300027B13968A14201D1C7F8008071054FF09B
:1003400002040BD54042002803DD02F0C1FC04602A
:10035000A007BDE8F08746F48066E4E70028F8DAF5
:1003600002F0B6FC04606FF00040F2E72DE9FE4FAA
:10037000804681EA0300C00F0C46009021F0004146
:1003800023F00045B8EB0200A94105D240462146C2
:1003900090461C460B46024623F00040104347D0CF
:1003A000270DC7F30A00C3F30A510290401A0190C7
:1003B00040286BDAC3F3130040F4801B0098924688
:1003C00020B10023D2EB030A63EB0B0B01985946D3
:1003D000C0F140025046FFF772FF06460D465046F8
:1003E0005946019A00F092F910EB0800614100248F
:1003F00087EA115284EAE7731A4340D0009A62B345
:10040000019A012A4FEA075215DC001B61EB020139
:100410004FF0004202EA0752CDE90042001C41F5CC
:10042000801132462B4600F0E5F903B0BDE8F08FAD
:1004300040462146F9E7001B61EB0201001C41F533
:10044000801300185B412018A2F5001747EB030149
:1004500040EAD570B6196D4111E06D084FEA3606D5
:1004600045EAC0754FEA0752001B61EB0201001C10
:1004700041F5801149084FEA3000001951413246D8
:100480002B4603B0BDE8F04F00F0A5B9009801225B
:1004900040000023D0EB020263EBE073009821469A
:1004A0004FEAE074B8EB000061EB0401E9E783F088
:1004B00000435BE781F0004158E72DE9FE4F81EAF8
:1004C000030404F0004421F0004100944FF0000BBD
:1004D00023F0004350EA01045ED052EA03045BD0EB
:1004E000C3F30A54C1F30A552C44A4F2F334019423
:1004F000A0FB0254C1F3130141F48011C3F31303B1
:1005000043F4801301FB024400FB034E840A970A64
:1005100044EA815447EA8357A4FB076802958D0A91
:1005200005FB07854FEA932C04FB0C542705029D1D
:100530004FEA065847EA1637B5EB08056EEB070C8D
:10054000870E920E47EA811742EA8312A7FB020147
:10055000B6EB0B0164EB00042B0D43EA0C335E1881
:1005600044EB1C50DA465146E7FB0201C5F3130485
:100570004FEA0B3343EA14534FEA0432019C43EA37
:100580000603A4F10C040294009CCDE900B400F031
:1005900031F903B0BDE8F08F00200146F9E72DE9FD
:1005A000F04D81EA030404F0004B21F000451446AD
:1005B0004FF0000A23F0004150EA050220D054EA2F
:1005C00001021DD0C5F30A570246C5F31303C1F358
:1005D0001300C1F30A5640F4801543F48013A7EBCF
:1005E0000608101BD64608F2FD3873EB050002D34F
:1005F00008F1010801E092185B41B8F1000F03DA3D
:1006000000200146BDE8F08D00204FF48011064621
:1006100084460EE0171B73EB050705D3121B63EB33
:10062000050306434CEA010C49084FEA30009218D2
:100630005B4150EA0107EDD152EA030012D082EA91
:10064000040083EA0501084305D0101BAB4106D224
:100650000122002306E000224FF0004302E06FF089
:10066000010253101AEB06004CEB085110EB0A0084
:1006700041EB0B01BDE8F04D00F0ADB8C1F30A52FB
:10068000C1F3130140F2FF3341F480119A4202DAC0
:1006900000200146704740F233439A42A2F23342AF
:1006A00002DC5242FFF71ABEFFF709BE30B5041E46
:1006B00071F1000404DB4FF00044404264EB01019F
:1006C000141E73F1000405DB1C464FF00043524238
:1006D00063EB0403994208BF904230BD1CB5094842
:1006E0000090094801900546009C06E0E06840F053
:1006F000010394E8070098471034AC42F6D3FFF7A3
:1007000047FD0000C8360008E8360008202A06DB4E
:10071000CB17203A41FA02F043EAE07306E041FACF
:1007200002F3D040C2F120029140084319467047BD
:10073000004870472C3600082DE9F05F82460078AB
:10074000002715468B460AF10104B946302801D02E
:100750009DB113E014F8010B0127782803D0582825
:1007600001D045B10AE00DB1102D07D100271025A9
:1007700014F8010B02E0082500E00A250026B04627
:100780000EE005FB080005FB06F1012701EB104612
:100790001FFA80F8B6F5803F00D3B94614F8010B74
:1007A000294600F075F80028EBDABBF1000F05D000
:1007B0000FB1641E00E05446CBF80040B9F1000FC1
:1007C00006D002F085FA02210160C81EBDE8F09F44
:1007D00048EA0640FAE710B5141E73F1000408DA7F
:1007E000401C41F1000192185B411A4301D120F0F5
:1007F000010010BD2DE9F04D92469B4611B1B1FAB2
:1008000081F202E0B0FA80F220329046FFF757FD05
:1008100004460F4640EA0A0041EA0B0153465A4695
:10082000084313D0114653EA010019D0C8F1400221
:100830005046FFF753FD05460E4650465946424680
:10084000FFF73DFD084305D0012004E0204639466E
:10085000BDE8F08D0020054346EAE0762C4337439F
:100860000A986305E40AA0EB08000022FD0A44EAA6
:1008700047540A3002D500200146E9E70105101966
:100880006941DDE9084500196941BDE8F04DA2E77D
:100890003A2800D2303820F02002412A01D3A2F1B8
:1008A0003700884201D34FF0FF307047FFE7FEE783
:1008B0007047000072B6FFE7FEE7000080B584B025
:1008C00002900298806D019000F0A6FA00900298C4
:1008D00090F8350002280DD0FFE702998020486586
:1008E000FFE70299002081F83400FFE701208DF82E
:1008F0000F0055E002980168086820F016000860B3
:1009000002980168486920F0800048610298006CF4
:1009100020B9FFE70298806C38B1FFE702980168C0
:10092000086820F008000860FFE70298016808687E
:1009300020F001000860FFE7029800680068C00727
:10094000C8B1FFE700F068FA0099401A062811D3F1
:10095000FFE70299202048650299032081F83500BD
:10096000FFE70299002081F83400FFE703208DF8AB
:100970000F0015E0E0E70298C16D3F208840019923
:1009800088600299012081F83500FFE70299002074
:1009900081F83400FFE7FFE700208DF80F00FFE744
:1009A0009DF80F0004B080BD82B00090009890F8D0
:1009B0003500022807D0FFE7009980204865012014
:1009C0008DF807000EE00099052081F835000098A9
:1009D0000168086820F001000860FFE700208DF83A
:1009E0000700FFE79DF8070002B0704780B584B0AC
:1009F000039000F011FA02900398019001980130E1
:100A000048B1FFE740F20C00C2F200000178019803
:100A100008440190FFE7FFE700F0FEF90299401A51
:100A20000199884201D2FFE7F6E704B080BD0000DB
:100A30008EB00D900C9100200A90099008900B90B8
:100A4000FFE70B980F2800F2CC81FFE70B990120FC
:100A500088400A900C9800680A9908400990099803
:100A60000A99884240F0B881FFE70C98406800F08E
:100A70000300012807D0FFE70C98406800F003004E
:100A800002282FD1FFE70D98806808900B9841004D
:100A9000032000FA01F10898884308900C98C06878
:100AA0000B99490000FA01F108980843089008984A
:100AB0000D9988600D98406808900B99012000FA04
:100AC00001F10898884308900C984068C0F3001022
:100AD0000B9900FA01F108980843089008980D99BD
:100AE0004860FFE70C98406800F00300032818D026
:100AF000FFE70D98C06808900B984100032000FAAA
:100B000001F10898884308900C9880680B99490077
:100B100000FA01F108980843089008980D99C860F8
:100B2000FFE70C98406800F00300022826D1FFE799
:100B30000D980B996FF0030202EA51010844006A14
:100B400008900B9800F0070081000F2000FA01F1D7
:100B50000898884308900C9800690B9901F00701E8
:100B6000890000FA01F108980843089008980D9947
:100B70000B9B02EA530211440862FFE70D980068DC
:100B800008900B984100032000FA01F1089888436F
:100B900008900C98406800F003000B99490000FA97
:100BA00001F108980843089008980D9908600C987E
:100BB00080798007002800F00E81FFE7FFE7002022
:100BC000079043F64400C4F20200016841F48041FA
:100BD0000160006800F4804007900798FFE70B98D9
:100BE00020F0030043F60801C4F2010140580890C8
:100BF0000B9800F0030081000F2000FA01F1089823
:100C0000884308900D980021C4F20201884203D164
:100C1000FFE7002006905EE00D9840F20041C4F22C
:100C20000201884203D1FFE70120059050E00D98B2
:100C300040F60001C4F20201884203D1FFE702201E
:100C4000049042E00D9840F60041C4F2020188424F
:100C500003D1FFE70320039034E00D9841F2000137
:100C6000C4F20201884203D1FFE70420029026E08B
:100C70000D9841F20041C4F20201884203D1FFE71E
:100C80000520019018E00D9841F60001C4F2020120
:100C9000884203D1FFE7062000900AE00D9941F653
:100CA0000042C4F202020820914208BF07200090CF
:100CB000FFE700980190FFE701980290FFE7029894
:100CC0000390FFE703980490FFE704980590FFE77F
:100CD00005980690FFE70698C0B20B9901F0030152
:100CE000890000FA01F108980843089008980B99C8
:100CF00021F0030143F60802C4F20102885043F6D2
:100D00000840C4F2010000680890099908988843D7
:100D100008900C988079C006002805D5FFE709994E
:100D2000089808430890FFE7089843F60841C4F282
:100D30000101086043F60C40C4F20100006808900D
:100D400009990898884308900C98807980060028B3
:100D500005D5FFE70999089808430890FFE7089828
:100D600043F60C41C4F20101086043F60440C4F2AA
:100D700001000068089009990898884308900C9829
:100D800080798007002805D5FFE70999089808436E
:100D90000890FFE7089843F60441C4F20101086097
:100DA00043F60040C4F201000068089009990898D1
:100DB000884308900C988079C00728B1FFE709990B
:100DC000089808430890FFE7089843F60041C4F2EA
:100DD00001010860FFE7FFE7FFE70B9801300B9088
:100DE0002FE60EB07047000082B00190ADF80210FF
:100DF0008DF801209DF8010028B1FFE7BDF8020041
:100E00000199886105E0BDF802000004019988613C
:100E1000FFE702B07047000040F29000C2F200000D
:100E20000068704740F20C00C2F20000027840F205
:100E30009001C2F200010868104408607047000089
:100E400080B543F60041C4F20201086840F4007026
:100E50000860086840F480600860086840F48070AA
:100E60000860032000F08AF80F2000F005F800F079
:100E70003BF8002080BD000080B582B0009040F2B9
:100E80000800C2F20000006840F20C01C2F200014A
:100E90000A784FF47A71B1FBF2F1B0FBF1F000F097
:100EA000A5FD20B1FFE701208DF8070018E00098AC
:100EB0000F280DD8FFE700994FF0FF30002200F017
:100EC00043F8009840F21001C2F20001086003E00C
:100ED00001208DF8070003E000208DF80700FFE7F0
:100EE0009DF8070002B080BD82B0FFE700200190AE
:100EF00043F64400C4F20200016841F480410160FD
:100F0000006800F4804001900198FFE7FFE70020AF
:100F1000009043F64000C4F20200016841F08051A5
:100F20000160006800F0805000900098FFE702B078
:100F30007047000080B582B08DF807009DF907006A
:100F400001F034FE02B080BD80B586B08DF8170088
:100F5000049103920020029001F040FE02909DF95E
:100F60001700019002980499039A01F023FA0146B0
:100F7000019801F03BFE06B080BD000080B582B054
:100F80000190019801F054FE02B080BD80B584B09C
:100F900002900191029820B9FFE701208DF80F001F
:100FA00021E1019843F60041C4F20201096801F011
:100FB0000701884212D9FFE7019943F60040C4F2C5
:100FC00002000170006800F007000199884204D017
:100FD000FFE701208DF80F0005E1FFE70298007898
:100FE000800700282AD5FFE70298007840070028EC
:100FF00009D5FFE743F60801C4F20201086840F48E
:10100000E0500860FFE7029800780007002809D543
:10101000FFE743F60801C4F20201086840F46040AB
:101020000860FFE743F60801C4F20201086820F0F7
:10103000F000029A926810430860FFE70298007877
:10104000C00700286ED0FFE702984068012811D140
:10105000FFE743F60000C4F20200006800F400312C
:101060000020B0EB514F04D1FFE701208DF80F00B5
:10107000B9E02CE002984068022805D0FFE702980A
:101080004068032811D1FFE743F60000C4F20200D4
:10109000006800F000710020B0EB516F04D1FFE751
:1010A00001208DF80F009EE010E043F60000C4F22E
:1010B0000200006800F002010020B0EB510F04D1E3
:1010C000FFE701208DF80F008DE0FFE7FFE743F613
:1010D0000801C4F20201086820F00300029A526875
:1010E00010430860FFF798FE0090FFE743F6080002
:1010F000C4F20200006800F00C0002994968B0EBED
:10110000810F0ED0FFE7FFF787FE0099401A41F2EA
:101110008931884204D3FFE703208DF80F0062E095
:10112000E4E7FFE7019843F60041C4F202010968D1
:1011300001F00701884212D2FFE7019943F600400F
:10114000C4F202000170006800F0070001998842B3
:1011500004D0FFE701208DF80F0044E0FFE702987C
:101160000078400700280CD5FFE743F60801C4F2D9
:101170000201086820F4E050029AD2681043086027
:10118000FFE702980078000700280DD5FFE743F637
:101190000801C4F20201086820F46040029A126952
:1011A00040EAC2000860FFE700F04CF843F608018F
:1011B000C4F202010968C9B20A0943F23061C0F6FB
:1011C0000001895CC84040F20801C2F200010860D9
:1011D00040F21000C2F200000068FFF74DFE002050
:1011E0008DF80F00FFE79DF80F0004B080BD0000F0
:1011F00040F20800C2F200000068704780B5FFF7B7
:10120000F7FF43F60801C4F202010968C1F3822224
:1012100043F24061C0F60001895CC84080BD000017
:1012200080B5FFF7E5FF43F60801C4F20201096843
:1012300089B24A0B43F24061C0F60001895CC840A4
:1012400080BD000080B586B000200590049003901A
:10125000029043F60800C4F20200006800F00C009F
:101260000146019140B1FFE7019804280AD0FFE749
:10127000019808280CD04FE042F20040C0F2F40080
:1012800002904FE041F20020C0F27A00029049E063
:1012900043F60400C4F20200016801F03F01059129
:1012A00000684002002813D5FFE743F60400C4F2AB
:1012B00002000068C0F3881041F20021C0F27A01F8
:1012C000A0FB0101059A0023FEF77AFF049012E0CB
:1012D00043F60400C4F202000068C0F3881042F232
:1012E0000041C0F2F401A0FB0101059A0023FEF7C2
:1012F00067FF0490FFE743F60400C4F202000068B1
:1013000000F44031022000EBD1300390049803999F
:10131000B0FBF1F0029005E042F20040C0F2F400B0
:101320000290FFE7029806B080BD000080B586B04D
:101330000490049820B9FFE701208DF8170050E3CE
:1013400004980078C007002800F0A580FFE743F666
:101350000800C4F20200006800F00C00042813D05A
:10136000FFE743F60800C4F20200006800F00C003A
:1013700008281ED1FFE743F60400C4F2020000680B
:101380004002002815D5FFE743F60000C4F2020032
:10139000006800F400310020B0EB514F08D0FFE7A7
:1013A0000498406820B9FFE701208DF8170018E382
:1013B00070E0FFE704984068B0F5803F09D1FFE78F
:1013C00043F60001C4F20201086840F4803008606E
:1013D00020E004984068B0F5A02F0DD1FFE743F658
:1013E0000001C4F20201086840F480200860086827
:1013F00040F4803008600CE043F60001C4F20201C2
:10140000086820F480300860086820F480200860B4
:10141000FFE7FFE7FFE704984068E8B1FFE7FFF761
:10142000FBFC0390FFE743F60000C4F202000068F3
:1014300000F400310020B0EB514F0CD1FFE7FFF773
:10144000EBFC0399401A652804D3FFE703208DF8CD
:101450001700C6E2E7E71CE0FFF7DEFC0390FFE7BA
:1014600043F60000C4F20200006800F400310020DE
:10147000B0EB514F0CD0FFE7FFF7CEFC0399401AB9
:10148000652804D3FFE703208DF81700A9E2E7E7FA
:10149000FFE7FFE7FFE7049800788007002840F1A6
:1014A0009680FFE743F60800C4F20200006810F0DF
:1014B0000C0F13D0FFE743F60800C4F202000068E7
:1014C00000F00C0008282CD1FFE743F60400C4F21A
:1014D000020000684002002823D4FFE743F6000022
:1014E000C4F20200006800F002010020B0EB510FCE
:1014F00009D0FFE70498C068012804D0FFE7012065
:101500008DF817006DE243F60001C4F2020108688D
:1015100020F0F800049A126940EAC2000860FFE770
:1015200054E00498C06870B3FFE70021C4F247217B
:1015300001200860FFF770FC0390FFE743F600000E
:10154000C4F20200006800F002010020B0EB510F6D
:101550000CD1FFE7FFF760FC0399401A032804D37E
:10156000FFE703208DF817003BE2E7E743F60001B1
:10157000C4F20201086820F0F800049A126940EAF7
:10158000C200086021E00021C4F247210020086069
:10159000FFF742FC0390FFE743F60000C4F20200AD
:1015A000006800F002010020B0EB510F0CD0FFE703
:1015B000FFF732FC0399401A032804D3FFE7032006
:1015C0008DF817000DE2E7E7FFE7FFE7FFE7049874
:1015D0000078000700284BD5FFE70498406918B34E
:1015E000FFE740F68061C4F2472101200860FFF761
:1015F00013FC0390FFE743F67400C4F20200006896
:1016000000F002010020B0EB510F0CD1FFE7FFF713
:1016100003FC0399401A032804D3FFE703208DF845
:101620001700DEE1E7E722E040F68061C4F24721DF
:1016300000200860FFF7F0FB0390FFE743F674001B
:10164000C4F20200006800F002010020B0EB510F6C
:101650000CD0FFE7FFF7E0FB0399401A032804D3FF
:10166000FFE703208DF81700BBE1E7E7FFE7FFE79F
:10167000049800784007002840F1CE80FFE7002062
:101680008DF8070043F64000C4F202000068C00075
:10169000002815D4FFE7FFE70020009043F6400044
:1016A000C4F20200016841F080510160006800F05E
:1016B000805000900098FFE701208DF80700FFE7B9
:1016C00047F20000C4F200000068C005002822D4E0
:1016D000FFE747F20001C4F20001086840F480709F
:1016E0000860FFF799FB0390FFE747F20000C4F2A0
:1016F00000000068C00500280CD4FFE7FFF78CFB52
:101700000399401A032804D3FFE703208DF817003C
:1017100067E1EAE7FFE7FFE704988068012809D15D
:10172000FFE743F67001C4F20201086840F00100CF
:1017300008601FE00498806805280DD1FFE743F694
:101740007001C4F20201086840F0040008600868F3
:1017500040F0010008600CE043F67001C4F20201A1
:10176000086820F001000860086820F004000860A4
:10177000FFE7FFE7FFE704988068F8B1FFE7FFF7AE
:101780004BFB0390FFE743F67000C4F202000068D1
:1017900000F002010020B0EB510F0ED1FFE7FFF780
:1017A0003BFB0399401A41F28931884204D3FFE799
:1017B00003208DF8170014E1E5E71EE0FFF72CFB8E
:1017C0000390FFE743F67000C4F20200006800F0E7
:1017D00002010020B0EB510F0ED0FFE7FFF71CFB1A
:1017E0000399401A41F28931884204D3FFE703206C
:1017F0008DF81700F5E0E5E7FFE79DF80700012801
:1018000009D1FFE743F64001C4F20201086820F065
:1018100080500860FFE7FFE704988069002800F027
:10182000DC80FFE743F60800C4F20200006800F025
:101830000C00082800F08580FFE7049880690228E2
:101840005CD1FFE76021C4F2472100200860FFF768
:10185000E3FA0390FFE743F60000C4F202000068D9
:1018600000F000710020B0EB516F0CD0FFE7FFF7E4
:10187000D3FA0399401A032804D3FFE703208DF815
:101880001700AEE0E7E70499C869D1F820C04B6AB9
:101890008A6A40EA0C0040EA8310D2034FF6FF73D5
:1018A0009A43A2F580321043C96A40EA016043F6C8
:1018B0000401C4F2020108606021C4F24721012042
:1018C0000860FFF7A9FA0390FFE743F60000C4F2AF
:1018D0000200006800F000710020B0EB516F0CD1E5
:1018E000FFE7FFF799FA0399401A032804D3FFE7AB
:1018F00003208DF8170074E0E7E721E06021C4F2CF
:10190000472100200860FFF787FA0390FFE743F6BE
:101910000000C4F20200006800F000710020B0EB8B
:10192000516F0CD0FFE7FFF777FA0399401A0328AD
:1019300004D3FFE703208DF8170052E0E7E7FFE745
:101940004AE004988069012804D1FFE701208DF85E
:10195000170046E043F60400C4F20200006802905B
:1019600004988069012831D0FFE7029800F48000D4
:101970000499C969884229D1FFE7029800F03F0025
:101980000499096A884221D1FFE7029847F6C0719D
:1019900008400499496AB0EB811F17D1FFE702980C
:1019A00000F440300499896AC9034FF6FF729143ED
:1019B000A1F58031884209D1FFE7029800F07060FC
:1019C0000499C96AB0EB016F04D0FFE701208DF8DC
:1019D000170006E0FFE7FFE7FFE700208DF817009C
:1019E000FFE79DF8170006B080BD000080B582B00B
:1019F0000190019800F05EFD02B080BD82B00190C0
:101A0000ADF8021002B0704781B0009001B070478D
:101A100080B592B0119011980068006810901198EC
:101A20000068C0680F901198006840690E9000200F
:101A30000D900C90109800F00F000D900D9888B943
:101A4000FFE79DF84000800600280AD5FFE79DF8D3
:101A50003C008006002804D5FFE7119800F060FEE6
:101A6000E3E1FFE70D98002800F0C280FFE79DF852
:101A70003800C00738B9FFE7BDF83C0010F4907F8C
:101A800000F0B680FFE79DF84000C00758B1FFE7BF
:101A90009DF83D00C00730B1FFE71199086C40F098
:101AA00001000864FFE79DF84000400700280BD5BF
:101AB000FFE79DF83800C00730B1FFE71199086CC7
:101AC00040F002000864FFE79DF84000800700280E
:101AD0000BD5FFE79DF83800C00730B1FFE711993B
:101AE000086C40F004000864FFE79DF84000000720
:101AF000002811D5FFE79DF83C008006002805D49A
:101B0000FFE79DF83800C00730B1FFE71199086C76
:101B100040F008000864FFE71198006C002866D0C8
:101B2000FFE79DF84000800600280AD5FFE79DF8F2
:101B30003C008006002804D5FFE7119800F0F0FD76
:101B4000FFE7119800684069C0F380100C9011986D
:101B5000006C0007002804D4FFE70C9800283ED052
:101B6000FFE7119800F07EFD11980068406940067B
:101B700000282FD5FFE7FFE7FFE71198006850E83E
:101B8000050F20F040000B90FFE70B9911980268B9
:101B900042E805100028F0D1FFE7FFE71198806BBD
:101BA00098B1FFE71198816B42F24560C0F60000E2
:101BB00008651198806BFEF7F7FE28B1FFE71198D2
:101BC000806B016D8847FFE703E01198FFF71CFF6A
:101BD000FFE703E01198FFF717FFFFE706E0119812
:101BE000FFF712FF119900200864FFE7FFE71CE1EF
:101BF0001198006B012840F0F880FFE79DF8400045
:101C0000C006002840F1F180FFE79DF83C00C006C7
:101C1000002840F1EA80FFE7FFE700200A901198D2
:101C2000006800680A901198006840680A900A9855
:101C3000FFE7119800684069400600287ED5FFE75D
:101C40001198806B00684068ADF82600BDF826004A
:101C5000002872D0FFE7BDF826001199898D8842CF
:101C60006BDAFFE7BDF826001199C8851198806BE3
:101C7000C069B0F5807F58D0FFE7FFE7FFE7119814
:101C8000006850E8030F20F480700890FFE708997F
:101C90001198026842E803100028F0D1FFE7FFE73F
:101CA000FFE7FFE71198006850E8050F20F00100FA
:101CB0000790FFE707991198026842E8051000288D
:101CC000F0D1FFE7FFE7FFE7FFE71198006850E872
:101CD000050F20F040000690FFE706991198026872
:101CE00042E805100028F0D1FFE7FFE71199202016
:101CF00081F83E00119900200863FFE7FFE7119883
:101D0000006850E8030F20F010000590FFE70599E8
:101D10001198026842E803100028F0D1FFE7FFE7BE
:101D20001198806BFEF7CAFDFFE71198818DC28D77
:101D3000891A89B2FFF762FEFFE776E01199888D74
:101D4000C98D401AADF812001198C08D00284BD0F3
:101D5000FFE7BDF81200002846D0FFE7FFE7FFE7E6
:101D60001198006850E8030F20F490700390FFE78B
:101D700003991198026842E803100028F0D1FFE7A8
:101D8000FFE7FFE7FFE71198006850E8050F20F034
:101D900001000290FFE702991198026842E80510DD
:101DA0000028F0D1FFE7FFE71199202081F83E00DD
:101DB000119900200863FFE7FFE71198006850E8D9
:101DC000030F20F010000190FFE7019911980268BD
:101DD00042E803100028F0D1FFE7FFE71198BDF8B3
:101DE0001210FFF70BFEFFE71FE09DF84000000612
:101DF00000280AD5FFE79DF83C000006002804D51E
:101E0000FFE7119800F014FE0FE09DF84000400637
:101E100000280AD5FFE79DF83C004006002804D5BD
:101E2000FFE7119800F068FCFFE712B080BD0000EA
:101E300080B582B00090009820B9FFE701208DF8AE
:101E400007003EE00098806908B1FFE700E0FFE787
:101E5000009890F83D0040B9FFE70099002081F814
:101E60003C00009800F032F8FFE70099242081F848
:101E70003D0000980168C86820F40050C8600098D0
:101E800000F000FD00980168086920F490400861A6
:101E900000980168486920F02A00486100980168AC
:101EA000C86840F40050C860009900200864009A97
:101EB000202182F83D10009A82F83E108DF807002C
:101EC000FFE79DF8070002B080BD000080B58AB032
:101ED00009900020089007900690059004900998BA
:101EE000006841F20001C4F2010188423ED1FFE7DF
:101EF000FFE70020039043F64400C4F202000168AB
:101F000041F010010160006800F010000390039898
:101F1000FFE7FFE70020029043F63000C4F2020022
:101F2000016841F001010160006800F001000290C9
:101F30000298FFE74FF4C060049002200590002053
:101F40000090069003200790072008900020C4F21C
:101F5000020004A9FEF76CFD009A252001901146AD
:101F6000FEF7F2FF0198FEF7E5FFFFE70AB080BD3C
:101F700080B584B002900191ADF80220029890F8EB
:101F80003E00202828D1FFE7019820B1FFE7BDF8E7
:101F9000020020B9FFE701208DF80F0020E0FFE7E5
:101FA000029890F83C00012804D1FFE702208DF848
:101FB0000F0015E00299012081F83C00FFE7FFE7E0
:101FC00002990020086302980199BDF8022000F0F0
:101FD000F7FC8DF80F0003E002208DF80F00FFE7FB
:101FE0009DF80F0004B080BD80B582B001900198CB
:101FF000006841F20001C4F20101884244D1FFE7C8
:1020000040F21900C2F20000037840F24801C2F227
:10201000000191F800C00CF101020A7040F22002A8
:10202000C2F2000202F80C300B780021D154007883
:102030000A2808D0FFE740F21900C2F20000007839
:102040000D2815D1FFE740F24800C2F200000078E9
:1020500001280DDBFFE740F24801C2F200010878D9
:1020600040F21C02C2F20002106000200870FFE77C
:1020700040F24C00C2F2000040F21901C2F200012D
:102080000122FFF775FFFFE702B080BD80B58AB07F
:1020900008900791ADF81A20059300200290089847
:1020A00090F83D00202840F09080FFE7079820B18D
:1020B000FFE7BDF81A0020B9FFE701208DF82700DF
:1020C00087E0FFE7089890F83C00012804D1FFE77B
:1020D00002208DF827007CE00899012081F83C005F
:1020E000FFE7FFE70899002008640899212081F89C
:1020F0003D00FEF791FE0290BDF81A000899888411
:10210000BDF81A000899C88408988068B0F5805F07
:1021100009D1FFE70898006928B9FFE7002004907B
:102120000798039004E00798049000200390FFE7CD
:10213000FFE70899002081F83C00FFE7FFE70898D7
:10214000C08C58B3FFE70898029B05996A46116056
:102150008021002200F0B6FC20B1FFE703208DF8BB
:10216000270036E0049858B9FFE7039800886FF31A
:102170005F2008990968486003980230039008E0DE
:102180000498007808990968486004980130049020
:10219000FFE70899C88C0138C884D0E70898029BEB
:1021A00005996A4611604021002200F08BFC20B1A5
:1021B000FFE703208DF827000BE00899202081F825
:1021C0003D0000208DF8270003E002208DF8270055
:1021D000FFE79DF827000AB080BD000081B00090A5
:1021E00001B07047FFE7FEE780B582B0019001982B
:1021F0000090FEF73AF8009982B240F24C00C2F229
:1022000000006423FFF742FF02B080BD80B590B0AC
:1022100000200F900E900D900C900B90FFE7002087
:102220000A9043F63000C4F20200016841F08001D8
:102230000160006800F080000A900A98FFE7FFE75D
:102240000020099043F63000C4F20200016841F01A
:1022500001010160006800F0010009900998FFE7A2
:10226000FFE70020089043F63000C4F20200016846
:1022700041F002010160006800F002000890089837
:10228000FFE7FFE70020079043F63000C4F20200AA
:10229000016841F008010160006800F00800079043
:1022A0000798FFE70020C4F2020001900F2100917F
:1022B00000220592FEF798FD059A40F20040C4F214
:1022C0000200049040F203410291FEF78DFD009A56
:1022D000019805990B92012203920C920D910E9197
:1022E0000BA90691FEF7A4FBDDF808C0039B049838
:1022F000059A0699CDF82CC00C930D920E92FEF71C
:1023000097FB0498059A06994FF400530B930C928F
:102310000D92FEF78DFB059806994FF4F8520B923B
:102320000C900D9040F60040C4F20200FEF780FBD6
:1023300010B080BD80B582B040F24C00C2F2000007
:10234000019041F20001C4F2010101604FF4E1315A
:10235000416000218160C16001610C2242618161A4
:10236000C161FFF765FD18B1FFE7FEF7A3FAFFE7CC
:1023700002B080BD80B540F24C00C2F2000043F2D2
:102380009A61C0F6000110226423FFF77FFE43F23A
:102390008260C0F60000FFF727FF43F26E60C0F6D0
:1023A000000000F085FC00F01BF980BDFFE7FEE7B0
:1023B000FFE7FEE788B0079006910592079800F0C6
:1023C000070004900498C0F10700052803D3FFE735
:1023D0000420019004E00498C0F107000190FFE799
:1023E0000198039004980430062803D8FFE70020E2
:1023F000009003E0049803380090FFE700980290F3
:1024000006980399012202FA01F101390840029B62
:10241000984005999A40013A1140084308B0704726
:102420007047000080B582B00190019843F2AB6123
:10243000C0F60001FDF707FF38B1FFE743F2656022
:10244000C0F6000000F034FCFFE7019843F293610E
:10245000C0F60001FDF7F7FE38B1FFE743F25B601D
:10246000C0F6000000F024FCFFE7019843F2B261DF
:10247000C0F60001FDF7E7FEC0B1FFE7019843F2A7
:10248000B261C0F60001FDF7DEFE0330FDF7F4FE99
:10249000014640F21800C2F200000170017843F2D8
:1024A0004860C0F6000000F003FCFFE702B080BD0A
:1024B0007047000080B582B0009000980138B0F1FC
:1024C000807F03D3FFE70120019019E000980138D5
:1024D0004EF21401CEF2000108604FF0FF300F21E0
:1024E00000F084FB4EF21801CEF2000100200860DB
:1024F0004EF21002CEF20002072111600190FFE7B8
:10250000019802B080BD000080B5FEF78BFC80BD55
:1025100080B594B008A83021FDF78AFE002007900E
:102520000690059004900390FFE70020029043F688
:102530004000C4F20200016841F08051016000686F
:1025400000F0805002900298FFE7FFE70020019022
:1025500047F20000C4F20000016841F480410160CC
:10256000006800F4804001900198FFE70120089086
:102570004FF48030099002210E914FF480000F90AB
:1025800004201090A82211921291139008A8FEF72F
:10259000CDFE18B1FFE7FEF78DF9FFE70F2003909E
:1025A00002200490002005904FF4A05006904FF4B4
:1025B0008050079003A80521FEF7E8FC18B1FFE75B
:1025C000FEF778F9FFE714B080BD00004EF68851A1
:1025D000CEF20001086840F4700008607047000007
:1025E00080B582B040F24C00C2F2000040F2190106
:1025F000C2F200010122FFF7BBFC8DF80700FFE7E4
:1026000040F21C00C2F200000068012815DBFFE761
:1026100043F2B960C0F6000040F22001C2F20001AE
:10262000009100F045FB0098FFF7FCFE40F21C0112
:10263000C2F2000100200860FFE70A20FEF7D6F989
:10264000DEE7000080B582B001900198806B0090B9
:1026500000990020C8850099C8840098FFF7D4F934
:1026600002B080BD84B00390FFE7FFE703980068E5
:1026700050E8030F20F490700290FFE7029903984E
:10268000026842E803100028F0D1FFE7FFE7FFE708
:10269000FFE70398006850E8050F20F00100019063
:1026A000FFE701990398026842E805100028F0D17D
:1026B000FFE7FFE70398006B012814D1FFE7FFE76E
:1026C000FFE70398006850E8030F20F01000009027
:1026D000FFE700990398026842E803100028F0D150
:1026E000FFE7FFE7FFE70399202081F83E00039909
:1026F0000020086304B0704780B582B00190019853
:102700000168C86820F04000C8600199202081F865
:102710003D000198FFF762FD002002B080BD00007F
:1027200080B586B00490049890F83E00222840F0CE
:10273000A180FFE704988068B0F5805F15D1FFE7BE
:102740000498006988B9FFE7002003900498806A24
:1027500002900498006840686FF35F200299088037
:102760000499886A0230886225E00498806A0390A0
:102770000020029004988068B0F5805F08D0FFE7E1
:102780000498806850B9FFE70498006930B9FFE702
:102790000498006840680399087007E0049800688E
:1027A000406800F07F0003990870FFE70499886A89
:1027B00001308862FFE70499C88D0138C88500049C
:1027C000002853D1FFE704980168C86820F0200072
:1027D000C86004980168C86820F48070C8600498D4
:1027E0000168486920F0010048610499202081F8BF
:1027F0003E000498006B012830D1FFE704990020C7
:102800000863FFE7FFE70498006850E8030F20F033
:1028100010000190FFE701990498026842E8031054
:102820000028F0D1FFE7FFE7049800680068C006C1
:1028300000280ED5FFE7FFE700200090049800680D
:102840000068009004980068406800900098FFE7D6
:10285000FFE70498818DFFF7D1F803E00498FFF7B4
:10286000C3FBFFE700208DF8170007E000208DF87C
:10287000170003E002208DF81700FFE79DF817000E
:1028800006B080BD80B586B00590059800680069E7
:1028900020F44050059A1168D268104308610599E8
:1028A00088680B694A69C969184310430843049052
:1028B00005980068C06849F20C6188430499084390
:1028C00005990968C86005980068406920F440705F
:1028D000059A11689269104348610598006841F2B1
:1028E0000001C4F20101884209D0FFE705980068A1
:1028F00041F20041C4F20101884204D1FFE7FEF732
:102900008FFC039003E0FEF779FC0390FFE7059846
:10291000C069B0F5004F29D1FFE703981921A0FB4A
:102920000101059A1368029353685A00DB0FFDF703
:1029300047FC0299864648F21F53C5F2EB13AEFBE3
:102940000320420910014FF0640C02FB1CEC322200
:1029500002EBCC02A2FB0332F82303EA521300EB92
:102960004300C2F342121044886026E00398192104
:10297000A0FB0101059A1368019353689A009B0F0D
:10298000FDF71EFC0199844648F21F52C5F2EB1276
:10299000ACFB02304309642003FB10CC322000EB77
:1029A0000C10A0FB0202F02000EA521000EB031012
:1029B000C2F3431210448860FFE706B080BD0000F8
:1029C00083B002900191ADF80220019802998862CB
:1029D000BDF8020002998885BDF802000299C885F9
:1029E0000299002008640299222081F83E00FFE746
:1029F0000299002081F83C00FFE70298006938B195
:102A0000FFE702980168C86840F48070C860FFE77B
:102A100002980168486940F0010048610298016825
:102A2000C86840F02000C860002003B07047000074
:102A300083B00190019890F83D0021283AD1FFE73A
:102A400001988068B0F5805F13D1FFE701980069B5
:102A500078B9FFE70198006A0090009800886FF34A
:102A60005F200199096848600199086A023008628C
:102A700008E0019A106A411C116200780199096806
:102A80004860FFE70199C88C0138C884000468B920
:102A9000FFE701980168C86820F08000C8600198CD
:102AA0000168C86840F04000C860FFE700208DF86A
:102AB0000B0003E002208DF80B00FFE79DF80B00F0
:102AC00003B0704780B588B0DDF828C00690059146
:102AD0008DF813200393FFE70698006800680599B6
:102AE0000840401AB0FA80F040099DF8131088425F
:102AF00049D1FFE70A980130002843D0FFE70A9840
:102B000040B1FFE7FEF788F90399401A0A99884215
:102B100037D9FFE7FFE7FFE70698006850E8030FA3
:102B200020F4D0700290FFE702990698026842E80C
:102B300003100028F0D1FFE7FFE7FFE7FFE7069863
:102B4000006850E8050F20F001000190FFE70199AF
:102B50000698026842E805100028F0D1FFE7FFE779
:102B60000699202081F83D00069981F83E00FFE794
:102B70000699002081F83C00FFE703208DF81F0034
:102B800005E0FFE7A8E700208DF81F00FFE79DF8AC
:102B90001F0008B080BD000080B540F24C00C2F2BA
:102BA0000000FEF735FF80BDFFE7FEE781B08DF83E
:102BB00003009DF9030000280ED4FFE79DF90310E0
:102BC00001F01F02012090404A094EF20011CEF29E
:102BD000000141F82200FFE701B070474EF60C50AB
:102BE000CEF200000068C0F30220704782B08DF87A
:102BF000070000919DF9070000280AD4FFE700981C
:102C000000019DF907104EF20042CEF200028854F6
:102C10000BE0009800019DF8071001F00F014EF63F
:102C20001452CEF200028854FFE702B07047000051
:102C300083B00290029800F0070000904EF60C510D
:102C4000CEF200010868019001984FF6FF02104093
:102C500001900198009A40EA02200022C0F2FA5244
:102C6000104301900198086003B0704780B582B0AE
:102C70000190009140F24C00C2F2000001A9012233
:102C80004FF0FF33FFF702FA019802B080BD000059
:102C900080B582B000200190FEF7D2F8FFF738FC33
:102CA000FFF7B4FAFFF746FBFFE7FFF763FBFCE72C
:102CB0000FB4054B10B503A9044A029800F0DEF8E2
:102CC00010BC5DF814FB00006D2C00080000002013
:102CD000004870470400002002E008C8121F08C125
:102CE000002AFAD170477047002001E001C1121F8D
:102CF000002AFBD1704700002DE9FF5F82B0002160
:102D0000DDE90430020DDDF840B0034318D044F68D
:102D10001050A2F2FF3242431514119801281FD01F
:102D2000A5EB0B00401C5FEA000A4FF000064E4F77
:102D3000DFF83891B046504615D5CAF1000413E0CB
:102D4000119801244AA3012801D16FEA0B010298CE
:102D5000119AC0E90031C0E9024206B0BDE8F09F17
:102D6000CBF10000DFE704460021404A491842EB5E
:102D70000450CDE9001012E0E00707D032463B4690
:102D800040464946FDF799FB8046894632463B4618
:102D900010461946FDF791FB06460F466410002CBD
:102DA000EAD1DDE90401DDE90023BAF1000F06DA1A
:102DB000FDF783FB42464B46FDF77FFB05E0FDF741
:102DC000EEFB42464B46FDF7EAFB04460E46002268
:102DD000284BFDF76BFC03D84FF0FF30014607E0AE
:102DE0000022254B20463146FDF7C0FAFDF746FC90
:102DF000102409E0002C0ADB0A220023FDF7E0F989
:102E0000039B30321A55641E50EA0102F2D1641C51
:102E1000039AC4F111031444119A012A03D0012228
:102E200008430DD10AE0084304D000204FF0110BF5
:102E3000119072E7A3EB0B056D1E0DE05B4504DD01
:102E40004FF0000205F1010504E003DA4FF0000243
:102E5000A5F10105002AECD002981199C0E90231D0
:102E6000C0E9004579E70000000014400000F03F91
:102E7000300000000000F0430000E03F2DE9FF4F6C
:102E800095B09B468946064600250FE2252877D156
:102E900000242746F84A0121059400E0044316F86F
:102EA000013F203B01FA03F01042F7D130782A2885
:102EB00011D06FF02F033078A0F13002092A16D814
:102EC000059A44F0020402EB820203EB4202104432
:102ED000761C0590EFE759F8042B0592002A03DAD7
:102EE000504244F40054059044F00204761C3078BB
:102EF0002E2816D116F8010F44F004042A280DD00C
:102F00006FF02F023078A0F13003092B09D807EBBE
:102F1000870302EB4303C718761CF3E759F8047BD9
:102F2000761C30786C280FD006DC4C2817D0682827
:102F30000DD06A2814D104E0742810D07A280FD15B
:102F40000DE044F400140AE044F4801401E044F479
:102F500040147278824202D104F58014761C761CEB
:102F6000307866280BD013DC582877D009DC00288D
:102F700075D04528F6D04628F4D047281AD19DE1CF
:102F800018E0632835D0642879D0652812D195E1FE
:102F9000702873D008DC6728F1D069286FD06E28BC
:102FA0000DD06F2806D1B5E073282CD0752875D0C8
:102FB000782874D05A46179990476D1C75E1C4F370
:102FC0000250022809D003280DD0D9F80010042897
:102FD0000DD00D6009F1040967E1D9F80010EA1776
:102FE000C1E90052F6E7D9F800100D80F2E70D7044
:102FF000F0E719F8041B8DF8001000208DF801008F
:10300000EA46012003E059F804AB4FF0FF306107B6
:103010004FF0000102D40DE008F101018846B942E9
:103020000FDA8045F8DB1AF808100029F4D108E01F
:1030300008F1010188468142FADB1AF808100029DC
:10304000F6D105985B46A0EB080721463846179A4B
:1030500000F094FA284400EB080507E04DE029E170
:103060000DE01AF8010B5A4617999047B8F101087C
:10307000F7D25B4621463846179A13E142E00A220E
:103080000092C4F302524FF0000A022A08D059F805
:1030900004CB032A4FEAEC710AD00DE029E02AE0C4
:1030A00009F1070121F00702F2E802C1914609E0A7
:1030B0000FFA8CFC4FEAEC71042A03D14FFA8CFC16
:1030C0004FEAEC71002907DA0A460021DCF1000C16
:1030D00061EB02012D2202E0220504D52B228DF89E
:1030E0000420012203E0E20701D02022F7E7904606
:1030F00059E00A2102E010220DE010214FF0000AF1
:1031000000910BE010224FF0000A44F0040408275D
:10311000009203E008224FF0000A0092C4F302522A
:10312000022A05D059F804CB0021032A08D009E06F
:1031300009F1070121F00702F2E802C1914605E01A
:103140001FFA8CFC042A01D10CF0FF0C4FF0000890
:10315000220728D5702806D0009B83F0100353EA7D
:103160000A0305D00EE040228DF80420012208E079
:103170005CEA010206D030228DF804208DF80500AB
:1031800002229046009B83F0080353EA0A030AD107
:103190005CEA010201D1620705D530228DF80420D6
:1031A0004FF001087F1E582804D034A003900EA8C9
:1031B00002900DE036A0F9E753466046009AFCF70E
:1031C000FFFF84460398825C0298401E02900270C2
:1031D0005CEA0100F0D1029806A9081A00F1200A61
:1031E000600702D524F4803400E00127574502DD52
:1031F000A7EB0A0000E0002000EB0A010090059810
:103200004144401A0590E00306D45B462146179AD4
:10321000059800F0B3F90544002706E001A85A46D6
:10322000C05D179990476D1C7F1C4745F6DBE00396
:103230000CD55B462146179A059800F09FF9054486
:1032400004E030205A46179990476D1C0099481E9B
:1032500000900029F5DC08E0029802995A460078AF
:10326000491C0291179990476D1CBAF10001AAF10F
:10327000010AF1DC65E10000092801003031323338
:1032800034353637383961626364656600000000A2
:10329000303132333435363738394142434445468C
:1032A0000000000000F058F90544761C3078002832
:1032B0007FF4ECAD19B02846BDE8F08F620700D46A
:1032C000062709F1070222F0070CFCE80223E14679
:1032D00003F000485FEA080C02D00FF2702C0DE0FA
:1032E0005FEA045C02D50FF2682C07E05FEAC47C59
:1032F00002D00FF2602C01E0AFF2700C4FF0FF38FB
:1033000023F00043CDF850C065280CD006DC4528DA
:1033100009D046281DD047283DD13DE0662818D069
:1033200067287ED138E00021112F01DB112000E059
:10333000781CCDE9000106A90EA8FFF7DDFCDDE948
:103340000F010E9A03910021009207F1010A0491E6
:103350004DE04FF000400097CDE9011006A90EA8FE
:10336000FFF7CAFCDDE90F0203920E9B11990022C0
:10337000DDF80CA00093049211B9791C00EB010A4E
:10338000B7EB0A0004D4C0F1FF3007F1010A049042
:10339000AAEB0700019044E0012F00DA0127002189
:1033A000112F01DD112000E03846CDE9000106A90A
:1033B0000EA8FFF7A1FCDDE90F010E9A0391002191
:1033C00004910092BA4621070CD40399514500DAC2
:1033D0008A46BAF1010F05DD009AAAF10101515C9C
:1033E000302908D0B84202DA10F1040F06DA0121C0
:1033F000CDE9011015E0AAF10101E9E7002805DC9B
:10340000049901440491AAEB000102E0411C5145DA
:1034100000DD8A460499401A401C01904FF000409C
:103420000290200704D40198504501DBCDF80480B8
:1034300000208DF84F0002980DF14F07B0F1004FBA
:1034400025D02B200E9002984FF0020800280CDAAD
:10345000404202902D200E9007E00A210298FCF7CE
:1034600018FF3031029007F8011DB8F10001A8F1F2
:103470000108F2DC02980028EFD1791E0E9808703E
:10348000307800F0200040F0450007F8020D12A847
:10349000C01B00F107081498007800B1012000EB70
:1034A0000A01019801EBE07105984144401A401E61
:1034B0000590E00306D45B462146179A059800F074
:1034C0005DF805441498007818B15A46179990474A
:1034D0006D1CE00324D55B462146179A059800F041
:1034E0004DF805441CE00498002807DBDDE90301E2
:1034F000884203DD0098405C179901E0179930205D
:103500005A469047049805F10105401C0490019823
:10351000401E019004D12E205A46179990476D1CE9
:10352000BAF10001AAF1010ADDDC05E017F8010B90
:103530005A46179990476D1CB8F10001A8F101088F
:10354000F4DC5B462146179A0598ABE62D00000097
:103550002B000000200000002DE9F041044600256A
:103560001E461746880404D405E039462020B0479B
:103570006D1C641EF9D52846BDE8F0812DE9F041A7
:10358000044600251E469046C80301D5302700E0BA
:103590002027880404D505E041463846B0476D1C15
:1035A000641EF9D52846BDE8F08100404040404007
:1035B0004040404041414141414040404040404006
:1035C000404040404040404040404005020202022E
:1035D0000202020202020202020202202020202035
:1035E00020202020200202020202020290909090ED
:1035F00090901010101010101010101010101010CB
:10360000101010101010020202020202888888882E
:10361000888808080808080808080808080808082A
:10362000080808080808020202024000AB3500083A
:103630000000000000000000010203040607080962
:103640000000000001020304626C696E6B20546983
:103650006D65203A202564200D0A004C4544312038
:103660006F666620004C454431206F6E2000616D0E
:10367000697220686573616D20626172617469208E
:103680002100544553542053657269616C2054588D
:103690003221004C4544313A300054657374205354
:1036A000455249414C2054582031004C4544313A50
:1036B000310042543D002563004E657744617461DA
:1036C0004C696E653A257300E8360008000000205A
:1036D00018000000D82C000800370008180000204F
:1036E00080040000E82C000800000000000000003A
:1036F0000024F400010000001000000000000000A1
:040000050800018965
:00000001FF
