:020000040800F2
:10000000580400209D0100084D1B000885190008B8
:10001000491B000841070008011F000800000000FC
:10002000000000000000000000000000C11B0008EC
:100030004507000800000000BD1B0008191C00084F
:10004000B7010008B7010008B7010008B7010008B0
:10005000B7010008B7010008B7010008B7010008A0
:10006000B7010008B7010008B7010008B701000890
:10007000B7010008B7010008B7010008B701000880
:10008000B7010008B7010008B7010008B701000870
:10009000B7010008B7010008B7010008B701000860
:1000A000B7010008B7010008B7010008B701000850
:1000B000B7010008B7010008B7010008B701000840
:1000C000B7010008B7010008B7010008B701000830
:1000D000B7010008B7010008B7010008B701000820
:1000E000B7010008B7010008B7010008B701000810
:1000F000B7010008B7010008B7010008B701000800
:10010000B7010008B7010008B7010008B7010008EF
:10011000B7010008B7010008B7010008B7010008DF
:10012000B7010008B7010008B7010008B7010008CF
:10013000B7010008B7010008B7010008B7010008BF
:10014000B7010008B7010008B7010008B7010008AF
:10015000B7010008B7010008B7010008B70100089F
:10016000B7010008B7010008B7010008B70100088F
:10017000B7010008B7010008B7010008000000003F
:10018000B7010008B7010008DFF80CD000F050FA02
:1001900000480047B91F000858040020064880475F
:1001A00006480047FEE7FEE7FEE7FEE7FEE7FEE75C
:1001B000FEE7FEE7FEE7FEE7DD1C00088901000818
:1001C0002DE9F05F0546002092469B46884606468C
:1001D000814640241BE0284641464746224600F01F
:1001E0005EF853465A46C01A914110D3114618463C
:1001F000224600F045F82D1A67EB01084F462246CB
:100200000120002100F03CF817EB00094E41201EB0
:10021000A4F10104DFDC484631462A464346BDE8E6
:10022000F09FD2B201E000F8012B491EFBD27047CB
:100230000022F6E710B513460A4604461946FFF7B2
:10024000F0FF204610BD421C10F8011B0029FBD115
:10025000801A704730B50B46014600202022012449
:1002600009E021FA02F59D4205D303FA02F5491B84
:1002700004FA02F52844151EA2F10102F1DC30BD9A
:10028000202A04DB203A00FA02F100207047914056
:10029000C2F1200320FA03F3194390407047202A4B
:1002A00004DB203A21FA02F00021704721FA02F320
:1002B000D040C2F1200291400843194670472DE911
:1002C000FE4F804681EA0300C00F0C46009021F0EB
:1002D000004123F00045B8EB0200A94105D2404699
:1002E000214690461C460B46024623F00040104330
:1002F00047D0270DC7F30A00C3F30A510290401AF2
:10030000019040286BDAC3F3130040F4801B00987F
:10031000924620B10023D2EB030A63EB0B0B01984A
:100320005946C0F140025046FFF7AAFF06460D4667
:1003300050465946019A00F093F910EB08006141CC
:10034000002487EA115284EAE7731A4340D0009AE6
:1003500062B3019A012A4FEA075215DC001B61EBD8
:1003600002014FF0004202EA0752CDE90042001CB0
:1003700041F5801132462B4600F093F903B0BDE8F9
:10038000F08F40462146F9E7001B61EB0201001C9B
:1003900041F5801300185B412018A2F5001747EBC8
:1003A000030140EAD570B6196D4111E06D084FEABE
:1003B000360645EAC0754FEA0752001B61EB0201A1
:1003C000001C41F5801149084FEA300000195141E5
:1003D00032462B4603B0BDE8F04F00F053B9009809
:1003E000012240000023D0EB020263EBE07300988F
:1003F00021464FEAE074B8EB000061EB0401E9E745
:1004000083F000435BE781F0004158E72DE9FE4FA0
:1004100081EA030404F0004421F0004100944FF00D
:10042000000B23F0004350EA01045ED052EA0304BB
:100430005BD0C3F30A54C1F30A552C44A4F2F3343D
:100440000194A0FB0254C1F3130141F48011C3F3E2
:10045000130343F4801301FB024400FB034E840AA0
:10046000970A44EA815447EA8357A4FB0768029538
:100470008D0A05FB07854FEA932C04FB0C542705D6
:10048000029D4FEA065847EA1637B5EB08056EEBB2
:10049000070C870E920E47EA811742EA8312A7FBE8
:1004A0000201B6EB0B0164EB00042B0D43EA0C33A5
:1004B0005E1844EB1C50DA465146E7FB0201C5F3D7
:1004C00013044FEA0B3343EA14534FEA0432019CFE
:1004D00043EA0603A4F10C040294009CCDE900B4A5
:1004E00000F0DFF803B0BDE8F08F00200146F9E727
:1004F0002DE9F04D81EA030404F0004B21F00045A2
:1005000014464FF0000A23F0004150EA050220D0C3
:1005100054EA01021DD0C5F30A570246C5F313037E
:10052000C1F31300C1F30A5640F4801543F480135D
:10053000A7EB0608101BD64608F2FD3873EB050042
:1005400002D308F1010801E092185B41B8F1000FF5
:1005500003DA00200146BDE8F08D00204FF4801141
:10056000064684460EE0171B73EB050705D3121BE6
:1005700063EB050306434CEA010C49084FEA3000DF
:1005800092185B4150EA0107EDD152EA030012D004
:1005900082EA040083EA0501084305D0101BAB4141
:1005A00006D20122002306E000224FF0004302E0C1
:1005B0006FF0010253101AEB06004CEB085110EBE0
:1005C0000A0041EB0B01BDE8F04D00F05BB8C1F350
:1005D0000A52C1F3130140F2FF3341F480119A42F1
:1005E00002DA00200146704740F233439A42A2F2F9
:1005F000334202DC5242FFF752BEFFF741BE000019
:1006000030B5041E71F1000404DB4FF00044404299
:1006100064EB0101141E73F1000405DB1C464FF06E
:100620000043524263EB0403994208BF904230BD3D
:100630001CB509480090094801900546009C06E059
:10064000E06840F0010394E8070098471034AC429A
:10065000F6D3FFF79DFD000018290008382900088F
:10066000202A06DBCB17203A41FA02F043EAE07376
:1006700006E041FA02F3D040C2F120029140084363
:100680001946704710B5141E73F1000408DA401CB7
:1006900041F1000192185B411A4301D120F00100A1
:1006A00010BD2DE9F04D92469B4611B1B1FA81F291
:1006B00002E0B0FA80F220329046FFF7E1FD0446F6
:1006C0000F4640EA0A0041EA0B0153465A460843E6
:1006D00013D0114653EA010019D0C8F14002504628
:1006E000FFF7DDFD05460E46504659464246FFF7E8
:1006F000C7FD084305D0012004E020463946BDE887
:10070000F08D0020054346EAE0762C4337430A98F3
:100710006305E40AA0EB08000022FD0A44EA4754FE
:100720000A3002D500200146E9E7010510196941A8
:10073000DDE9084500196941BDE8F04DA2E7000078
:10074000FFE7FEE77047000072B6FFE7FEE7000034
:100750008EB00D900C9100200A90099008900B909B
:10076000FFE70B980F2800F2CC81FFE70B990120DF
:1007700088400A900C9800680A99084009900998E6
:100780000A99884240F0B881FFE70C98406800F071
:100790000300012807D0FFE70C98406800F0030031
:1007A00002282FD1FFE70D98806808900B98410030
:1007B000032000FA01F10898884308900C98C0685B
:1007C0000B99490000FA01F108980843089008982D
:1007D0000D9988600D98406808900B99012000FAE7
:1007E00001F10898884308900C984068C0F3001005
:1007F0000B9900FA01F108980843089008980D99A0
:100800004860FFE70C98406800F00300032818D008
:10081000FFE70D98C06808900B984100032000FA8C
:1008200001F10898884308900C9880680B9949005A
:1008300000FA01F108980843089008980D99C860DB
:10084000FFE70C98406800F00300022826D1FFE77C
:100850000D980B996FF0030202EA51010844006AF7
:1008600008900B9800F0070081000F2000FA01F1BA
:100870000898884308900C9800690B9901F00701CB
:10088000890000FA01F108980843089008980D992A
:100890000B9B02EA530211440862FFE70D980068BF
:1008A00008900B984100032000FA01F10898884352
:1008B00008900C98406800F003000B99490000FA7A
:1008C00001F108980843089008980D9908600C9861
:1008D00080798007002800F00E81FFE7FFE7002005
:1008E000079043F64400C4F20200016841F48041DD
:1008F0000160006800F4804007900798FFE70B98BC
:1009000020F0030043F60801C4F2010140580890AA
:100910000B9800F0030081000F2000FA01F1089805
:10092000884308900D980021C4F20201884203D147
:10093000FFE7002006905EE00D9840F20041C4F20F
:100940000201884203D1FFE70120059050E00D9895
:1009500040F60001C4F20201884203D1FFE7022001
:10096000049042E00D9840F60041C4F20201884232
:1009700003D1FFE70320039034E00D9841F200011A
:10098000C4F20201884203D1FFE70420029026E06E
:100990000D9841F20041C4F20201884203D1FFE701
:1009A0000520019018E00D9841F60001C4F2020103
:1009B000884203D1FFE7062000900AE00D9941F636
:1009C0000042C4F202020820914208BF07200090B2
:1009D000FFE700980190FFE701980290FFE7029877
:1009E0000390FFE703980490FFE704980590FFE762
:1009F00005980690FFE70698C0B20B9901F0030135
:100A0000890000FA01F108980843089008980B99AA
:100A100021F0030143F60802C4F20102885043F6B4
:100A20000840C4F2010000680890099908988843BA
:100A300008900C988079C006002805D5FFE7099931
:100A4000089808430890FFE7089843F60841C4F265
:100A50000101086043F60C40C4F2010000680890F0
:100A600009990898884308900C9880798006002896
:100A700005D5FFE70999089808430890FFE708980B
:100A800043F60C41C4F20101086043F60440C4F28D
:100A900001000068089009990898884308900C980C
:100AA00080798007002805D5FFE709990898084351
:100AB0000890FFE7089843F60441C4F2010108607A
:100AC00043F60040C4F201000068089009990898B4
:100AD000884308900C988079C00728B1FFE70999EE
:100AE000089808430890FFE7089843F60041C4F2CD
:100AF00001010860FFE7FFE7FFE70B9801300B906B
:100B00002FE60EB07047000082B00190ADF80210E1
:100B10008DF801209DF8010028B1FFE7BDF8020023
:100B20000199886105E0BDF802000004019988611F
:100B3000FFE702B07047000040F25400C2F200002C
:100B40000068704740F20800C2F20000027840F2EC
:100B50005401C2F2000108681044086070470000A8
:100B600080B543F60041C4F20201086840F4007009
:100B70000860086840F480600860086840F480708D
:100B80000860032000F080F80F2000F005F800F066
:100B90003BF8002080BD000080B582B0009040F29C
:100BA0000400C2F20000006840F20801C2F2000135
:100BB0000A784FF47A71B1FBF2F1B0FBF1F000F07A
:100BC0009BFD20B1FFE701208DF8070018E0009899
:100BD0000F280DD8FFE700994FF0FF30002200F0FA
:100BE00039F8009840F20C01C2F20001086003E0FD
:100BF00001208DF8070003E000208DF80700FFE7D3
:100C00009DF8070002B080BD82B0FFE70020019090
:100C100043F64400C4F20200016841F480410160DF
:100C2000006800F4804001900198FFE7FFE7002092
:100C3000009043F64000C4F20200016841F0805188
:100C40000160006800F0805000900098FFE702B05B
:100C50007047000080B586B08DF8170004910392AC
:100C60000020029001F04EF902909DF917000190CA
:100C700002980499039A00F06BFF0146019801F075
:100C800049F906B080BD000080B582B0019001989E
:100C900001F062F902B080BD80B584B0029001918C
:100CA000029820B9FFE701208DF80F0021E101989B
:100CB00043F60041C4F20201096801F007018842CD
:100CC00012D9FFE7019943F60040C4F20200017017
:100CD000006800F007000199884204D0FFE7012076
:100CE0008DF80F0005E1FFE70298007880070028E3
:100CF0002AD5FFE7029800784007002809D5FFE7CA
:100D000043F60801C4F20201086840F4E0500860AC
:100D1000FFE7029800780007002809D5FFE743F6AF
:100D20000801C4F20201086840F460400860FFE76F
:100D300043F60801C4F20201086820F0F000029AAC
:100D4000926810430860FFE702980078C007002807
:100D50006ED0FFE702984068012811D1FFE743F603
:100D60000000C4F20200006800F400310020B0EB83
:100D7000514F04D1FFE701208DF80F00B9E02CE0BE
:100D800002984068022805D0FFE7029840680328CF
:100D900011D1FFE743F60000C4F20200006800F042
:100DA00000710020B0EB516F04D1FFE701208DF8F6
:100DB0000F009EE010E043F60000C4F2020000685D
:100DC00000F002010020B0EB510F04D1FFE7012039
:100DD0008DF80F008DE0FFE7FFE743F60801C4F24E
:100DE0000201086820F00300029A5268104308606C
:100DF000FFF7A2FE0090FFE743F60800C4F20200EE
:100E0000006800F00C0002994968B0EB810F0ED029
:100E1000FFE7FFF791FE0099401A41F289318842BD
:100E200004D3FFE703208DF80F0062E0E4E7FFE75B
:100E3000019843F60041C4F20201096801F007017C
:100E4000884212D2FFE7019943F60040C4F2020043
:100E50000170006800F007000199884204D0FFE7A4
:100E600001208DF80F0044E0FFE70298007840076A
:100E700000280CD5FFE743F60801C4F20201086818
:100E800020F4E050029AD26810430860FFE702980D
:100E90000078000700280DD5FFE743F60801C4F2EB
:100EA0000201086820F46040029A126940EAC20018
:100EB0000860FFE700F04CF843F60801C4F20201B5
:100EC0000968C9B20A0942F6CA01C0F60001895C84
:100ED000C84040F20401C2F20001086040F20C0078
:100EE000C2F200000068FFF757FE00208DF80F00E7
:100EF000FFE79DF80F0004B080BD000040F2040041
:100F0000C2F200000068704780B5FFF7F7FF43F6B4
:100F10000801C4F202010968C1F3822242F6DA0133
:100F2000C0F60001895CC84080BD000080B5FFF7B5
:100F3000E5FF43F60801C4F20201096889B24A0BD1
:100F400042F6DA01C0F60001895CC84080BD0000AD
:100F500080B586B00020059004900390029043F67F
:100F60000800C4F20200006800F00C000146019184
:100F700040B1FFE7019804280AD0FFE7019808284C
:100F80000CD04FE042F20040C0F2F40002904FE07B
:100F900041F20020C0F27A00029049E043F60400DA
:100FA000C4F20200016801F03F01059100684002AF
:100FB000002813D5FFE743F60400C4F202000068DE
:100FC000C0F3881041F20021C0F27A01A0FB0101B8
:100FD000059A0023FFF7F4F8049012E043F60400AA
:100FE000C4F202000068C0F3881042F20041C0F26F
:100FF000F401A0FB0101059A0023FFF7E1F804903A
:10100000FFE743F60400C4F20200006800F4403138
:10101000022000EBD130039004980399B0FBF1F06B
:10102000029005E042F20040C0F2F4000290FFE7B7
:10103000029806B080BD000080B586B00490049888
:1010400020B9FFE701208DF8170050E304980078DD
:10105000C007002800F0A580FFE743F60800C4F2AF
:101060000200006800F00C00042813D0FFE743F6EC
:101070000800C4F20200006800F00C0008281ED12D
:10108000FFE743F60400C4F20200006840020028B3
:1010900015D5FFE743F60000C4F20200006800F433
:1010A00000310020B0EB514F08D0FFE704984068B2
:1010B00020B9FFE701208DF8170018E370E0FFE783
:1010C00004984068B0F5803F09D1FFE743F600017E
:1010D000C4F20201086840F48030086020E00498FF
:1010E0004068B0F5A02F0DD1FFE743F60001C4F230
:1010F0000201086840F480200860086840F48030ED
:1011000008600CE043F60001C4F20201086820F414
:1011100080300860086820F480200860FFE7FFE75F
:10112000FFE704984068E8B1FFE7FFF705FD03908B
:10113000FFE743F60000C4F20200006800F400314B
:101140000020B0EB514F0CD1FFE7FFF7F5FC0399FE
:10115000401A652804D3FFE703208DF81700C6E284
:10116000E7E71CE0FFF7E8FC0390FFE743F6000029
:10117000C4F20200006800F400310020B0EB514FCF
:101180000CD0FFE7FFF7D8FC0399401A652804D379
:10119000FFE703208DF81700A9E2E7E7FFE7FFE785
:1011A000FFE7049800788007002840F19680FFE769
:1011B00043F60800C4F20200006810F00C0F13D0D0
:1011C000FFE743F60800C4F20200006800F00C00DC
:1011D00008282CD1FFE743F60400C4F2020000689F
:1011E0004002002823D4FFE743F60000C4F20200C7
:1011F000006800F002010020B0EB510F09D0FFE7BA
:101200000498C068012804D0FFE701208DF817007A
:101210006DE243F60001C4F20201086820F0F80014
:10122000049A126940EAC2000860FFE754E004989B
:10123000C06870B3FFE70021C4F2472101200860B5
:10124000FFF77AFC0390FFE743F60000C4F20200C8
:10125000006800F002010020B0EB510F0CD1FFE755
:10126000FFF76AFC0399401A032804D3FFE7032021
:101270008DF817003BE2E7E743F60001C4F20201F4
:10128000086820F0F800049A126940EAC200086079
:1012900021E00021C4F2472100200860FFF74CFC48
:1012A0000390FFE743F60000C4F20200006800F07C
:1012B00002010020B0EB510F0CD0FFE7FFF73CFC20
:1012C0000399401A032804D3FFE703208DF8170081
:1012D0000DE2E7E7FFE7FFE7FFE704980078000784
:1012E00000284BD5FFE70498406918B3FFE740F6A4
:1012F0008061C4F2472101200860FFF71DFC0390C4
:10130000FFE743F67400C4F20200006800F0020137
:101310000020B0EB510F0CD1FFE7FFF70DFC039954
:10132000401A032804D3FFE703208DF81700DEE1FD
:10133000E7E722E040F68061C4F247210020086020
:10134000FFF7FAFB0390FFE743F67400C4F20200D4
:10135000006800F002010020B0EB510F0CD0FFE755
:10136000FFF7EAFB0399401A032804D3FFE70320A1
:101370008DF81700BBE1E7E7FFE7FFE70498007887
:101380004007002840F1CE80FFE700208DF80700DD
:1013900043F64000C4F202000068C000002815D4E3
:1013A000FFE7FFE70020009043F64000C4F2020090
:1013B000016841F080510160006800F080500090A9
:1013C0000098FFE701208DF80700FFE747F20000D3
:1013D000C4F200000068C005002822D4FFE747F2ED
:1013E0000001C4F20001086840F480700860FFF753
:1013F000A3FB0390FFE747F20000C4F2000000687F
:10140000C00500280CD4FFE7FFF796FB0399401AAC
:10141000032804D3FFE703208DF8170067E1EAE70C
:10142000FFE7FFE704988068012809D1FFE743F64A
:101430007001C4F20201086840F0010008601FE07A
:101440000498806805280DD1FFE743F67001C4F2C7
:101450000201086840F004000860086840F00100DC
:1014600008600CE043F67001C4F20201086820F045
:1014700001000860086820F004000860FFE7FFE74B
:10148000FFE704988068F8B1FFE7FFF755FB03908A
:10149000FFE743F67000C4F20200006800F00201AA
:1014A0000020B0EB510F0ED1FFE7FFF745FB03998A
:1014B000401A41F28931884204D3FFE703208DF8B6
:1014C000170014E1E5E71EE0FFF736FB0390FFE7A6
:1014D00043F67000C4F20200006800F00201002030
:1014E000B0EB510F0ED0FFE7FFF726FB0399401A30
:1014F00041F28931884204D3FFE703208DF81700B9
:10150000F5E0E5E7FFE79DF80700012809D1FFE7CF
:1015100043F64001C4F20201086820F080500860E0
:10152000FFE7FFE704988069002800F0DC80FFE710
:1015300043F60800C4F20200006800F00C0008281E
:1015400000F08580FFE70498806902285CD1FFE7FE
:101550006021C4F2472100200860FFF7EDFA0390F4
:10156000FFE743F60000C4F20200006800F00071DB
:101570000020B0EB516F0CD0FFE7FFF7DDFA0399C5
:10158000401A032804D3FFE703208DF81700AEE0CC
:10159000E7E70499C869D1F820C04B6A8A6A40EA33
:1015A0000C0040EA8310D2034FF6FF739A43A2F572
:1015B00080321043C96A40EA016043F60401C4F274
:1015C000020108606021C4F2472101200860FFF792
:1015D000B3FA0390FFE743F60000C4F2020000688C
:1015E00000F000710020B0EB516F0CD1FFE7FFF766
:1015F000A3FA0399401A032804D3FFE703208DF8C8
:10160000170074E0E7E721E06021C4F247210020E1
:101610000860FFF791FA0390FFE743F60000C4F279
:101620000200006800F000710020B0EB516F0CD098
:10163000FFE7FFF781FA0399401A032804D3FFE775
:1016400003208DF8170052E0E7E7FFE74AE004982F
:101650008069012804D1FFE701208DF8170046E0DA
:1016600043F60400C4F20200006802900498806906
:10167000012831D0FFE7029800F480000499C9697D
:10168000884229D1FFE7029800F03F000499096AD7
:10169000884221D1FFE7029847F6C07108400499BB
:1016A000496AB0EB811F17D1FFE7029800F4403080
:1016B0000499896AC9034FF6FF729143A1F58031FD
:1016C000884209D1FFE7029800F070600499C96A66
:1016D000B0EB016F04D0FFE701208DF8170006E0A2
:1016E000FFE7FFE7FFE700208DF81700FFE79DF811
:1016F000170006B080BD000080B582B0019001984F
:1017000000F060FA02B080BD80B582B00090009811
:1017100020B9FFE701208DF807003EE000988069BE
:1017200008B1FFE700E0FFE7009890F83D0040B9FE
:10173000FFE70099002081F83C00009800F032F8A3
:10174000FFE70099242081F83D0000980168C868EF
:1017500020F40050C860009800F0CAFA00980168B0
:10176000086920F49040086100980168486920F0F9
:101770002A00486100980168C86840F40050C860B9
:10178000009900200864009A202182F83D10009AF8
:1017900082F83E108DF80700FFE79DF8070002B0C1
:1017A00080BD000080B588B00790002006900590AD
:1017B0000490039002900798006841F20001C4F27F
:1017C0000101884234D1FFE7FFE70020019043F692
:1017D0004400C4F20200016841F010010160006899
:1017E00000F0100001900198FFE7FFE70020009053
:1017F00043F63000C4F20200016841F001010160CB
:10180000006800F0010000900098FFE74FF4C0600E
:1018100002900220039000200490032005900720EE
:1018200006900020C4F2020002A9FEF791FFFFE734
:1018300008B080BD80B58AB008900791ADF81A2035
:10184000059300200290089890F83D00202840F071
:101850009080FFE7079820B1FFE7BDF81A0020B994
:10186000FFE701208DF8270087E0FFE7089890F850
:101870003C00012804D1FFE702208DF827007CE01E
:101880000899012081F83C00FFE7FFE70899002054
:1018900008640899212081F83D00FFF74DF9029076
:1018A000BDF81A0008998884BDF81A000899C88400
:1018B00008988068B0F5805F09D1FFE70898006953
:1018C00028B9FFE7002004900798039004E00798E8
:1018D000049000200390FFE7FFE70899002081F8BB
:1018E0003C00FFE7FFE70898C08C58B3FFE7089873
:1018F000029B05996A4611608021002200F096FA49
:1019000020B1FFE703208DF8270036E0049858B98E
:10191000FFE7039800886FF35F2008990968486023
:1019200003980230039008E0049800780899096849
:101930004860049801300490FFE70899C88C01388A
:10194000C884D0E70898029B05996A461160402137
:10195000002200F06BFA20B1FFE703208DF827008A
:101960000BE00899202081F83D0000208DF8270029
:1019700003E002208DF82700FFE79DF827000AB05A
:1019800080BD0000FFE7FEE780B582B001900198BE
:101990000090FEF758FC009982B240F21000C2F2AB
:1019A00000006423FFF746FF02B080BD80B590B011
:1019B00000200F900E900D900C900B90FFE70020F0
:1019C0000A9043F63000C4F20200016841F0800141
:1019D0000160006800F080000A900A98FFE7FFE7C6
:1019E0000020099043F63000C4F20200016841F083
:1019F00001010160006800F0010009900998FFE70B
:101A0000FFE70020089043F63000C4F202000168AE
:101A100041F002010160006800F00200089008989F
:101A2000FFE7FFE70020079043F63000C4F2020012
:101A3000016841F008010160006800F008000790AB
:101A40000798FFE70020C4F2020001900F210091E7
:101A500000220592FFF758F8059A40F20040C4F2C0
:101A60000200049040F203410291FFF74DF8009A02
:101A7000019805990B92012203920C920D910E91FF
:101A80000BA90691FEF764FEDDF808C0039B0498DD
:101A9000059A0699CDF82CC00C930D920E92FEF784
:101AA00057FE0498059A06994FF400530B930C9235
:101AB0000D92FEF74DFE059806994FF4F8520B92E1
:101AC0000C900D9040F60040C4F20200FEF740FE7C
:101AD00010B080BD80B582B040F21000C2F20000AC
:101AE000019041F20001C4F2010101604FF4E131C3
:101AF000416000218160C16001610C22426181610D
:101B0000C161FFF701FE18B1FFE7FEF71DFEFFE719
:101B100002B080BD80B540F21000C2F2000042F673
:101B20000711C0F6000110226423FFF783FE42F67E
:101B3000F600C0F60000FFF727FF42F6E200C0F60D
:101B4000000000F049FA80BDFFE7FEE7FFE7FEE78F
:101B500088B0079006910592079800F0070004905E
:101B60000498C0F10700052803D3FFE70420019083
:101B700004E00498C0F107000190FFE7019803908A
:101B800004980430062803D8FFE70020009003E003
:101B9000049803380090FFE7009802900698039994
:101BA000012202FA01F101390840029B984005998F
:101BB0009A40013A1140084308B07047704700004E
:101BC0007047000080B582B0009000980138B0F1F5
:101BD000807F03D3FFE70120019019E000980138CE
:101BE0004EF21401CEF2000108604FF0FF300F21D9
:101BF00000F090F94EF21801CEF2000100200860CA
:101C00004EF21002CEF20002072111600190FFE7B0
:101C1000019802B080BD000080B5FEF793FF80BD43
:101C200080B594B008A83021FEF702FB0020079091
:101C30000690059004900390FFE70020029043F681
:101C40004000C4F20200016841F080510160006868
:101C500000F0805002900298FFE7FFE7002001901B
:101C600047F20000C4F20000016841F480410160C5
:101C7000006800F4804001900198FFE7012008907F
:101C80004FF48030099002210E914FF480000F90A4
:101C900004201090A82211921291139008A8FFF727
:101CA000CBF918B1FFE7FEF74FFDFFE70F200390D8
:101CB00002200490002005904FF4A05006904FF4AD
:101CC0008050079003A80521FEF7E6FF18B1FFE753
:101CD000FEF73AFDFFE714B080BD00004EF68851D4
:101CE000CEF20001086840F4700008607047000000
:101CF00080B586B0059005980068006920F44050D2
:101D0000059A1168D26810430861059988680B69C3
:101D10004A69C9691843104308430490059800684C
:101D2000C06849F20C618843049908430599096821
:101D3000C86005980068406920F44070059A1168F1
:101D40009269104348610598006841F20001C4F2AD
:101D50000101884209D0FFE70598006841F200417F
:101D6000C4F20101884204D1FFE7FFF7DFF80390D6
:101D700003E0FFF7C9F80390FFE70598C069B0F5E5
:101D8000004F29D1FFE703981921A0FB0101059A13
:101D90001368029353685A00DB0FFEF711FA029999
:101DA000864648F21F53C5F2EB13AEFB03204209EF
:101DB00010014FF0640C02FB1CEC322202EBCC024F
:101DC000A2FB0332F82303EA521300EB4300C2F3F1
:101DD00042121044886026E003981921A0FB0101FB
:101DE000059A1368019353689A009B0FFEF7E8F970
:101DF0000199844648F21F52C5F2EB12ACFB023047
:101E00004309642003FB10CC322000EB0C10A0FB34
:101E10000202F02000EA521000EB0310C2F343125A
:101E200010448860FFE706B080BD000080B588B030
:101E3000DDF828C0069005918DF813200393FFE785
:101E400006980068006805990840401AB0FA80F0CA
:101E500040099DF81310884249D1FFE70A980130E4
:101E6000002843D0FFE70A9840B1FFE7FEF764FE81
:101E70000399401A0A99884237D9FFE7FFE7FFE73D
:101E80000698006850E8030F20F4D0700290FFE736
:101E900002990698026842E803100028F0D1FFE793
:101EA000FFE7FFE7FFE70698006850E8050F20F01E
:101EB00001000190FFE701990698026842E80510C9
:101EC0000028F0D1FFE7FFE70699202081F83D00C8
:101ED000069981F83E00FFE70699002081F83C0052
:101EE000FFE703208DF81F0005E0FFE7A8E70020CB
:101EF0008DF81F00FFE79DF81F0008B080BD0000AF
:101F0000FFE7FEE74EF60C50CEF200000068C0F38B
:101F10000220704782B08DF8070000919DF90700FC
:101F200000280AD4FFE7009800019DF907104EF23F
:101F30000042CEF2000288540BE0009800019DF8A8
:101F4000071001F00F014EF61452CEF20002885431
:101F5000FFE702B07047000083B00290029800F0E3
:101F6000070000904EF60C51CEF200010868019077
:101F700001984FF6FF02104001900198009A40EA44
:101F800002200022C0F2FA5210430190019808602A
:101F900003B0704780B582B00190009140F210000C
:101FA000C2F2000001A901224FF0FF33FFF742FC0B
:101FB000019802B080BD000080B582B00020019081
:101FC000FEF7CEFDFFF72CFEFFF7F0FCFFF782FDDA
:101FD000FFE7FFF79FFDFCE70FB4054B10B503A922
:101FE000044A029800F0DAF810BC5DF814FB000017
:101FF000951F00080000002002E008C8121F08C159
:10200000002AFAD170477047002001E001C1121F79
:10201000002AFBD1704700002DE9FF5F82B000214C
:10202000DDE90430020DDDF840B0034318D044F67A
:102030001050A2F2FF3242431514119801281FD00C
:10204000A5EB0B00401C5FEA000A4FF000064E4F64
:10205000DFF83891B046504615D5CAF1000413E0B8
:10206000119801244AA3012801D16FEA0B010298BB
:10207000119AC0E90031C0E9024206B0BDE8F09F04
:10208000CBF10000DFE704460021404A491842EB4B
:102090000450CDE9001012E0E00707D032463B467D
:1020A00040464946FEF7B2F98046894632463B46ED
:1020B00010461946FEF7AAF906460F466410002C92
:1020C000EAD1DDE90401DDE90023BAF1000F06DA07
:1020D000FEF79CF942464B46FEF798F905E0FEF7FD
:1020E00007FA42464B46FEF703FA04460E46002224
:1020F000284BFEF785FA03D84FF0FF30014607E082
:102100000022254B20463146FEF7D9F8FEF75FFA4C
:10211000102409E0002C0ADB0A220023FEF750F805
:10212000039B30321A55641E50EA0102F2D1641C3E
:10213000039AC4F111031444119A012A03D0012215
:1021400008430DD10AE0084304D000204FF0110BE2
:10215000119072E7A3EB0B056D1E0DE05B4504DDEE
:102160004FF0000205F1010504E003DA4FF0000230
:10217000A5F10105002AECD002981199C0E90231BD
:10218000C0E9004579E70000000014400000F03F7E
:10219000300000000000F0430000E03F2DE9FF4F59
:1021A00095B09B468946064600250FE2252877D143
:1021B00000242746F84A0121059400E0044316F85C
:1021C000013F203B01FA03F01042F7D130782A2872
:1021D00011D06FF02F033078A0F13002092A16D801
:1021E000059A44F0020402EB820203EB420210441F
:1021F000761C0590EFE759F8042B0592002A03DAC4
:10220000504244F40054059044F00204761C3078A7
:102210002E2816D116F8010F44F004042A280DD0F8
:102220006FF02F023078A0F13003092B09D807EBAB
:10223000870302EB4303C718761CF3E759F8047BC6
:10224000761C30786C280FD006DC4C2817D0682814
:102250000DD06A2814D104E0742810D07A280FD148
:102260000DE044F400140AE044F4801401E044F466
:1022700040147278824202D104F58014761C761CD8
:10228000307866280BD013DC582877D009DC00287A
:1022900075D04528F6D04628F4D047281AD19DE1BC
:1022A00018E0632835D0642879D0652812D195E1EB
:1022B000702873D008DC6728F1D069286FD06E28A9
:1022C0000DD06F2806D1B5E073282CD0752875D0B5
:1022D000782874D05A46179990476D1C75E1C4F35D
:1022E0000250022809D003280DD0D9F80010042884
:1022F0000DD00D6009F1040967E1D9F80010EA1763
:10230000C1E90052F6E7D9F800100D80F2E70D7030
:10231000F0E719F8041B8DF8001000208DF801007B
:10232000EA46012003E059F804AB4FF0FF306107A3
:102330004FF0000102D40DE008F101018846B942D6
:102340000FDA8045F8DB1AF808100029F4D108E00C
:1023500008F1010188468142FADB1AF808100029C9
:10236000F6D105985B46A0EB080721463846179A38
:1023700000F094FA284400EB080507E04DE029E15D
:102380000DE01AF8010B5A4617999047B8F1010869
:10239000F7D25B4621463846179A13E142E00A22FB
:1023A0000092C4F302524FF0000A022A08D059F8F2
:1023B00004CB032A4FEAEC710AD00DE029E02AE0B1
:1023C00009F1070121F00702F2E802C1914609E094
:1023D0000FFA8CFC4FEAEC71042A03D14FFA8CFC03
:1023E0004FEAEC71002907DA0A460021DCF1000C03
:1023F00061EB02012D2202E0220504D52B228DF88B
:102400000420012203E0E20701D02022F7E79046F2
:1024100059E00A2102E010220DE010214FF0000ADD
:1024200000910BE010224FF0000A44F0040408274A
:10243000009203E008224FF0000A0092C4F3025217
:10244000022A05D059F804CB0021032A08D009E05C
:1024500009F1070121F00702F2E802C1914605E007
:102460001FFA8CFC042A01D10CF0FF0C4FF000087D
:10247000220728D5702806D0009B83F0100353EA6A
:102480000A0305D00EE040228DF80420012208E066
:102490005CEA010206D030228DF804208DF8050098
:1024A00002229046009B83F0080353EA0A030AD1F4
:1024B0005CEA010201D1620705D530228DF80420C3
:1024C0004FF001087F1E582804D034A003900EA8B6
:1024D00002900DE036A0F9E753466046009AFDF7FA
:1024E0006FFE84460398825C0298401E0290027040
:1024F0005CEA0100F0D1029806A9081A00F1200A4E
:10250000600702D524F4803400E00127574502DD3E
:10251000A7EB0A0000E0002000EB0A0100900598FC
:102520004144401A0590E00306D45B462146179AC1
:10253000059800F0B3F90544002706E001A85A46C3
:10254000C05D179990476D1C7F1C4745F6DBE00383
:102550000CD55B462146179A059800F09FF9054473
:1025600004E030205A46179990476D1C0099481E88
:1025700000900029F5DC08E0029802995A4600789C
:10258000491C0291179990476D1CBAF10001AAF1FC
:10259000010AF1DC65E10000092801003031323325
:1025A000343536373839616263646566000000008F
:1025B0003031323334353637383941424344454679
:1025C0000000000000F058F90544761C307800281F
:1025D0007FF4ECAD19B02846BDE8F08F620700D457
:1025E000062709F1070222F0070CFCE80223E14666
:1025F00003F000485FEA080C02D00FF2702C0DE0E7
:102600005FEA045C02D50FF2682C07E05FEAC47C45
:1026100002D00FF2602C01E0AFF2700C4FF0FF38E7
:1026200023F00043CDF850C065280CD006DC4528C7
:1026300009D046281DD047283DD13DE0662818D056
:1026400067287ED138E00021112F01DB112000E046
:10265000781CCDE9000106A90EA8FFF7DDFCDDE935
:102660000F010E9A03910021009207F1010A0491D3
:102670004DE04FF000400097CDE9011006A90EA8EB
:10268000FFF7CAFCDDE90F0203920E9B11990022AD
:10269000DDF80CA00093049211B9791C00EB010A3B
:1026A000B7EB0A0004D4C0F1FF3007F1010A04902F
:1026B000AAEB0700019044E0012F00DA0127002176
:1026C000112F01DD112000E03846CDE9000106A9F7
:1026D0000EA8FFF7A1FCDDE90F010E9A039100217E
:1026E00004910092BA4621070CD40399514500DAAF
:1026F0008A46BAF1010F05DD009AAAF10101515C89
:10270000302908D0B84202DA10F1040F06DA0121AC
:10271000CDE9011015E0AAF10101E9E7002805DC87
:10272000049901440491AAEB000102E0411C5145C7
:1027300000DD8A460499401A401C01904FF0004089
:102740000290200704D40198504501DBCDF80480A5
:1027500000208DF84F0002980DF14F07B0F1004FA7
:1027600025D02B200E9002984FF0020800280CDA9A
:10277000404202902D200E9007E00A210298FDF7BA
:1027800069FD3031029007F8011DB8F10001A8F190
:102790000108F2DC02980028EFD1791E0E9808702B
:1027A000307800F0200040F0450007F8020D12A834
:1027B000C01B00F107081498007800B1012000EB5D
:1027C0000A01019801EBE07105984144401A401E4E
:1027D0000590E00306D45B462146179A059800F061
:1027E0005DF805441498007818B15A461799904737
:1027F0006D1CE00324D55B462146179A059800F02E
:102800004DF805441CE00498002807DBDDE90301CE
:10281000884203DD0098405C179901E01799302049
:102820005A469047049805F10105401C0490019810
:10283000401E019004D12E205A46179990476D1CD6
:10284000BAF10001AAF1010ADDDC05E017F8010B7D
:102850005A46179990476D1CB8F10001A8F101087C
:10286000F4DC5B462146179A0598ABE62D00000084
:102870002B000000200000002DE9F0410446002557
:102880001E461746880404D405E039462020B04788
:102890006D1C641EF9D52846BDE8F0812DE9F04194
:1028A000044600251E469046C80301D5302700E0A7
:1028B0002027880404D505E041463846B0476D1C02
:1028C000641EF9D52846BDE8F08100000000000034
:1028D00000000102030406070809000000000102CD
:1028E0000304616D697220686573616D20626172B5
:1028F0006174692021005445535420536572696105
:102900006C20545832210054657374205345524949
:10291000414C205458203100382900080000002084
:1029200010000000F81F00084829000810000020CF
:102930004804000008200008000000000024F40003
:0829400001000000100000007E
:040000050800018965
:00000001FF
